0130012650999992018010100004+62267+010733FM-12+048299999V0200701N001019999999N999999999-01371-01511098851ADDAA106000731MA1999999092821MD1710231+9999OD139900201999REMSYN06401265 16/// /0701 11137 21151 39282 49885 57023 69971 333 91102=
0110012650999992018010101004+62267+010733FM-12+048299999V0203501N001019999999N999999999-01291-01431098761ADDAA101000131MA1999999092751MD1710201+9999REMSYN05801265 26/// /3501 11129 21143 39275 49876 57020 333 69915=
0110012650999992018010102004+62267+010733FM-12+048299999V0202801N001019999999N999999999-01191-01331098681ADDAA101000091MA1999999092701MD1810201+9999REMSYN05801265 26/// /2801 11119 21133 39270 49868 58020 333 60005=
0110012650999992018010103004+62267+010733FM-12+048299999V0200801N002019999999N999999999-00931-01001098511ADDAA101000131MA1999999092601MD1810211+9999REMSYN05801265 26/// /0802 11093 21100 39260 49851 58021 333 69915=
0110012650999992018010104004+62267+010733FM-12+048299999V0202001N002019999999N999999999-00891-00971098421ADDAA101000131MA1999999092521MD1810231+9999REMSYN05801265 26/// /2002 11089 21097 39252 49842 58023 333 69915=
0110012650999992018010105004+62267+010733FM-12+048299999V0201201N001019999999N999999999-00841-00931098371ADDAA101000091MA1999999092491MD1610211+9999REMSYN05801265 26/// /1201 11084 21093 39249 49837 56021 333 60005=
0189012650999992018010106004+62267+010733FM-12+048299999V0200801N002019999999N999999999-00801-00881098291ADDAA112001031AA224001831AJ100193100190099KA1240N-01781MA1999999092421MD1610201+9999OD139900401999REMSYN08201265 16/// /0802 11080 21088 39242 49829 56020 60012 333 21178 4/019 70018 91104=
0110012650999992018010107004+62267+010733FM-12+048299999V0201801N004019999999N999999999-00151-00391098141ADDAA101000231MA1999999092411MD1610111+9999REMSYN05801265 26/// /1804 11015 21039 39241 49814 56011 333 69925=
0110012650999992018010108004+62267+010733FM-12+048299999V0201601N005019999999N999999999-00181-00361098161ADDAA101000091MA1999999092431MD1510061+9999REMSYN05801265 26/// /1605 11018 21036 39243 49816 55006 333 60005=
0110012650999992018010109004+62267+010733FM-12+048299999V0201801N003019999999N999999999-00151-00361098171ADDAA101000091MA1999999092441MD1210031+9999REMSYN05801265 26/// /1803 11015 21036 39244 49817 52003 333 60005=
0110012650999992018010110004+62267+010733FM-12+048299999V0201701N003019999999N999999999-00071-00321098171ADDAA101000091MA1999999092461MD1210051+9999REMSYN05801265 26/// /1703 11007 21032 39246 49817 52005 333 60005=
0110012650999992018010111004+62267+010733FM-12+048299999V0201701N005019999999N999999999-00081-00291098191ADDAA101000091MA1999999092471MD1210051+9999REMSYN05801265 26/// /1705 11008 21029 39247 49819 52005 333 60005=
0130012650999992018010112004+62267+010733FM-12+048299999V0201701N004019999999N999999999-00031-00251098181ADDAA106000231MA1999999092471MD1210021+9999OD139901001999REMSYN06401265 16/// /1704 11003 21025 39247 49818 52002 69921 333 91110=
0110012650999992018010113004+62267+010733FM-12+048299999V0201801N003019999999N999999999-00041-00251098201ADDAA101000091MA1999999092491MD1210031+9999REMSYN05801265 26/// /1803 11004 21025 39249 49820 52003 333 60005=
0129012650999992018010114004+62267+010733FM-12+048299999V0202901N002019999999N999999999-00291-00361098251ADDAA101000091MA1999999092481MD1290069+9999REMSYN05801265 26/// /2902 11029 21036 39248 49825 54001 333 60005=EQDQ01.1    3APC3  
0110012650999992018010115004+62267+010733FM-12+048299999V0201401N004019999999N999999999-00041-00191098191ADDAA101000091MA1999999092481MD1210021+9999REMSYN05801265 26/// /1404 11004 21019 39248 49819 52002 333 60005=
0110012650999992018010116004+62267+010733FM-12+048299999V0201501N004019999999N999999999-00051-00161098211ADDAA101000131MA1999999092511MD1210011+9999REMSYN05801265 26/// /1504 11005 21016 39251 49821 52001 333 69915=
0110012650999992018010117004+62267+010733FM-12+048299999V0201501N002019999999N999999999-00031-00211098251ADDAA101000091MA1999999092541MD1310061+9999REMSYN05801265 26/// /1502 11003 21021 39254 49825 53006 333 60005=
0149012650999992018010118004+62267+010733FM-12+048299999V0202901N001019999999N999999999-00321-00381098371ADDAA112000331KA1120M-00011MA1999999092601MD1310111+9999OD139901101999REMSYN07001265 16/// /2901 11032 21038 39260 49837 53011 69932 333 11001 91111=
0110012650999992018010119004+62267+010733FM-12+048299999V0202701N003019999999N999999999-00471-00541098451ADDAA101000091MA1999999092641MD1210141+9999REMSYN05801265 26/// /2703 11047 21054 39264 49845 52014 333 60005=
0110012650999992018010120004+62267+010733FM-12+048299999V0202201N001019999999N999999999-00401-00451098501ADDAA101000091MA1999999092701MD1210161+9999REMSYN05801265 26/// /2201 11040 21045 39270 49850 52016 333 60005=
0110012650999992018010121004+62267+010733FM-12+048299999V0202701N001019999999N999999999-00581-00681098611ADDAA101000091MA1999999092771MD1310171+9999REMSYN05801265 26/// /2701 11058 21068 39277 49861 53017 333 60005=
0110012650999992018010122004+62267+010733FM-12+048299999V0209999C999999999999N999999999-00591-00641098701ADDAA101000091MA1999999092851MD1310211+9999REMSYN05801265 26/// /0000 11059 21064 39285 49870 53021 333 60005=
0110012650999992018010123004+62267+010733FM-12+048299999V0200801N001019999999N999999999-00561-00621098761ADDAA101000091MA1999999092911MD1210221+9999REMSYN05801265 26/// /0801 11056 21062 39291 49876 52022 333 60005=
0130012650999992018010200004+62267+010733FM-12+048299999V0202701N001019999999N999999999-00561-00621098821ADDAA106000091MA1999999092971MD1210201+9999OD139900501999REMSYN06401265 16/// /2701 11056 21062 39297 49882 52020 60001 333 91105=
0110012650999992018010201004+62267+010733FM-12+048299999V0209999C999999999999N999999999-00551-00611098901ADDAA101000091MA1999999093041MD1210191+9999REMSYN05801265 26/// /0000 11055 21061 39304 49890 52019 333 60005=
0110012650999992018010202004+62267+010733FM-12+048299999V0202801N001019999999N999999999-00501-00551098941ADDAA101000131MA1999999093091MD1210181+9999REMSYN05801265 26/// /2801 11050 21055 39309 49894 52018 333 69915=
0110012650999992018010203004+62267+010733FM-12+048299999V0200901N001019999999N999999999-00431-00491098951ADDAA101000091MA1999999093121MD1210151+9999REMSYN05801265 26/// /0901 11043 21049 39312 49895 52015 333 60005=
0110012650999992018010204004+62267+010733FM-12+048299999V0209999C999999999999N999999999-00451-00511099031ADDAA101000091MA1999999093191MD1310161+9999REMSYN05801265 26/// /0000 11045 21051 39319 49903 53016 333 60005=
0110012650999992018010205004+62267+010733FM-12+048299999V0202901N001019999999N999999999-00491-00551099131ADDAA101000091MA1999999093271MD1310181+9999REMSYN05801265 26/// /2901 11049 21055 39327 49913 53018 333 60005=
0189012650999992018010206004+62267+010733FM-12+048299999V0202101N001019999999N999999999-00511-00571099211ADDAA112000131AA224000431AJ100173100170099KA1240N-00631MA1999999093351MD1310241+9999OD139900201999REMSYN08201265 16/// /2101 11051 21057 39335 49921 53024 69912 333 21063 4/017 70004 91102=
0110012650999992018010207004+62267+010733FM-12+048299999V0200801N002019999999N999999999-00691-00761099351ADDAA101000091MA1999999093441MD1310251+9999REMSYN05801265 26/// /0802 11069 21076 39344 49935 53025 333 60005=
0110012650999992018010208004+62267+010733FM-12+048299999V0209999C999999999999N999999999-00761-00861099461ADDAA101000091MA1999999093531MD1310261+9999REMSYN05801265 26/// /0000 11076 21086 39353 49946 53026 333 60005=
0110012650999992018010209004+62267+010733FM-12+048299999V0203101N001019999999N999999999-00611-00661099491ADDAA101000091MA1999999093591MD1210241+9999REMSYN05801265 26/// /3101 11061 21066 39359 49949 52024 333 60005=
0110012650999992018010210004+62267+010733FM-12+048299999V0200101N001019999999N999999999-00531-00591099541ADDAA101000091MA1999999093651MD1210211+9999REMSYN05801265 26/// /0101 11053 21059 39365 49954 52021 333 60005=
0110012650999992018010211004+62267+010733FM-12+048299999V0203001N001019999999N999999999-00611-00671099631ADDAA101000091MA1999999093721MD1310191+9999REMSYN05801265 26/// /3001 11061 21067 39372 49963 53019 333 60005=
0130012650999992018010212004+62267+010733FM-12+048299999V0200601N001019999999N999999999-00531-00601099671ADDAA106000091MA1999999093771MD1110181+9999OD139900301999REMSYN06401265 16/// /0601 11053 21060 39377 49967 51018 60001 333 91103=
0110012650999992018010213004+62267+010733FM-12+048299999V0203201N001019999999N999999999-00701-00821099711ADDAA101000091MA1999999093781MD1110141+9999REMSYN05801265 26/// /3201 11070 21082 39378 49971 51014 333 60005=
0110012650999992018010214004+62267+010733FM-12+048299999V0201801N001019999999N999999999-00741-00821099761ADDAA101000091MA1999999093811MD1110101+9999REMSYN05801265 26/// /1801 11074 21082 39381 49976 51010 333 60005=
0110012650999992018010215004+62267+010733FM-12+048299999V0203201N001019999999N999999999-00771-00851099811ADDAA101000091MA1999999093861MD1310091+9999REMSYN05801265 26/// /3201 11077 21085 39386 49981 53009 333 60005=
0110012650999992018010216004+62267+010733FM-12+048299999V0202101N001019999999N999999999-00711-00761099821ADDAA101000091MA1999999093881MD1210101+9999REMSYN05801265 26/// /2101 11071 21076 39388 49982 52010 333 60005=
0110012650999992018010217004+62267+010733FM-12+048299999V0202101N001019999999N999999999-00911-00971099901ADDAA101000091MA1999999093911MD1210101+9999REMSYN05801265 26/// /2101 11091 21097 39391 49990 52010 333 60005=
0149012650999992018010218004+62267+010733FM-12+048299999V0202701N002019999999N999999999-00961-01011099981ADDAA112000091KA1120M-00511MA1999999093971MD1310111+9999OD139900301999REMSYN07001265 16/// /2702 11096 21101 39397 49998 53011 60002 333 11051 91103=
0110012650999992018010219004+62267+010733FM-12+048299999V0201901N001019999999N999999999-01251-01381100041ADDAA101000091MA1999999093971MD1990091+9999REMSYN05801265 26/// /1901 11125 21138 39397 40004 50009 333 60005=
0110012650999992018010220004+62267+010733FM-12+048299999V0209999C999999999999N999999999-01431-01591100081ADDAA101000091MA1999999093971MD1990061+9999REMSYN05801265 26/// /0000 11143 21159 39397 40008 50006 333 60005=
0110012650999992018010221004+62267+010733FM-12+048299999V0202701N001019999999N999999999-01591-01711100131ADDAA101000091MA1999999093971MD1990001+9999REMSYN05801265 26/// /2701 11159 21171 39397 40013 50000 333 60005=
0110012650999992018010222004+62267+010733FM-12+048299999V0201201N001019999999N999999999-01571-01681100121ADDAA101000091MA1999999093961MD1990001+9999REMSYN05801265 26/// /1201 11157 21168 39396 40012 50000 333 60005=
0110012650999992018010223004+62267+010733FM-12+048299999V0209999C999999999999N999999999-01511-01671100081ADDAA101000091MA1999999093941MD1810031+9999REMSYN05801265 26/// /0000 11151 21167 39394 40008 58003 333 60005=
0130012650999992018010300004+62267+010733FM-12+048299999V0203101N001019999999N999999999-01401-01541100011ADDAA106000091MA1999999093901MD1810071+9999OD139900201999REMSYN06401265 16/// /3101 11140 21154 39390 40001 58007 60001 333 91102=
0110012650999992018010301004+62267+010733FM-12+048299999V0202901N002019999999N999999999-01331-01471099951ADDAA101000091MA1999999093861MD1810111+9999REMSYN05801265 26/// /2902 11133 21147 39386 49995 58011 333 60005=
0110012650999992018010302004+62267+010733FM-12+048299999V0202701N002019999999N999999999-01371-01511099901ADDAA101000091MA1999999093811MD1810131+9999REMSYN05801265 26/// /2702 11137 21151 39381 49990 58013 333 60005=
0110012650999992018010303004+62267+010733FM-12+048299999V0202601N002019999999N999999999-01371-01461099851ADDAA101000091MA1999999093761MD1810141+9999REMSYN05801265 26/// /2602 11137 21146 39376 49985 58014 333 60005=
0110012650999992018010304004+62267+010733FM-12+048299999V0202801N002019999999N999999999-01421-01531099801ADDAA101000091MA1999999093701MD1710161+9999REMSYN05801265 26/// /2802 11142 21153 39370 49980 57016 333 60005=
0110012650999992018010305004+62267+010733FM-12+048299999V0203101N001019999999N999999999-01391-01521099771ADDAA101000091MA1999999093681MD1710131+9999REMSYN05801265 26/// /3101 11139 21152 39368 49977 57013 333 60005=
0189012650999992018010306004+62267+010733FM-12+048299999V0200101N001019999999N999999999-01381-01491099731ADDAA112000091AA224000091AJ100173100170099KA1240N-01701MA1999999093651MD1610111+9999OD139900401999REMSYN08201265 16/// /0101 11138 21149 39365 49973 56011 60002 333 21170 4/017 70000 91104=
0110012650999992018010307004+62267+010733FM-12+048299999V0203601N001019999999N999999999-01361-01501099711ADDAA101000091MA1999999093631MD1710071+9999REMSYN05801265 26/// /3601 11136 21150 39363 49971 57007 333 60005=
0110012650999992018010308004+62267+010733FM-12+048299999V0203201N001019999999N999999999-01311-01441099661ADDAA101000091MA1999999093601MD1710081+9999REMSYN05801265 26/// /3201 11131 21144 39360 49966 57008 333 60005=
0110012650999992018010309004+62267+010733FM-12+048299999V0202801N001019999999N999999999-01251-01381099681ADDAA101000091MA1999999093631MD1510011+9999REMSYN05801265 26/// /2801 11125 21138 39363 49968 55001 333 60005=
0110012650999992018010310004+62267+010733FM-12+048299999V0209999C999999999999N999999999-01201-01331099661ADDAA101000091MA1999999093621MD1410001+9999REMSYN05801265 26/// /0000 11120 21133 39362 49966 54000 333 60005=
0110012650999992018010311004+62267+010733FM-12+048299999V0202401N001019999999N999999999-01141-01271099661ADDAA101000091MA1999999093631MD1990021+9999REMSYN05801265 26/// /2401 11114 21127 39363 49966 50002 333 60005=
0130012650999992018010312004+62267+010733FM-12+048299999V0209999C999999999999N999999999-01071-01191099621ADDAA106000091MA1999999093611MD1710031+9999OD139900201999REMSYN06401265 16/// /0000 11107 21119 39361 49962 57003 60001 333 91102=
0129012650999992018010313004+62267+010733FM-12+048299999V0203001N001019999999N999999999-01041-01161099611ADDAA101000091MA1999999093611MD1790059+9999REMSYN05801265 26/// /3001 11104 21116 39361 49961 54001 333 60005=EQDQ01.1    3APC3  
0110012650999992018010314004+62267+010733FM-12+048299999V0200801N001019999999N999999999-01031-01141099641ADDAA101000091MA1999999093641MD1310011+9999REMSYN05801265 26/// /0801 11103 21114 39364 49964 53001 333 60005=
0110012650999992018010315004+62267+010733FM-12+048299999V0209999C999999999999N999999999-01021-01131099661ADDAA101000091MA1999999093661MD1210061+9999REMSYN05801265 26/// /0000 11102 21113 39366 49966 52006 333 60005=
0110012650999992018010316004+62267+010733FM-12+048299999V0202201N001019999999N999999999-01011-01121099671ADDAA101000091MA1999999093671MD1210051+9999REMSYN05801265 26/// /2201 11101 21112 39367 49967 52005 333 60005=
0110012650999992018010317004+62267+010733FM-12+048299999V0209999C999999999999N999999999-01001-01111099691ADDAA101000091MA1999999093691MD1210051+9999REMSYN05801265 26/// /0000 11100 21111 39369 49969 52005 333 60005=
0149012650999992018010318004+62267+010733FM-12+048299999V0209999C999999999999N999999999-01001-01111099701ADDAA112000091KA1120M-00991MA1999999093701MD1210041+9999OD139900101999REMSYN07001265 16/// /0000 11100 21111 39370 49970 52004 60002 333 11099 91101=
0110012650999992018010319004+62267+010733FM-12+048299999V0203001N001019999999N999999999-00981-01091099731ADDAA101000131MA1999999093731MD1210071+9999REMSYN05801265 26/// /3001 11098 21109 39373 49973 52007 333 69915=
0110012650999992018010320004+62267+010733FM-12+048299999V0200401N001019999999N999999999-00981-01091099751ADDAA101000131MA1999999093751MD1210071+9999REMSYN05801265 26/// /0401 11098 21109 39375 49975 52007 333 69915=
0110012650999992018010321004+62267+010733FM-12+048299999V0209999C999999999999N999999999-00961-01051099771ADDAA101000131MA1999999093781MD1210081+9999REMSYN05801265 26/// /0000 11096 21105 39378 49977 52008 333 69915=
0110012650999992018010322004+62267+010733FM-12+048299999V0209999C999999999999N999999999-00931-01021099781ADDAA101000331MA1999999093791MD1210051+9999REMSYN05801265 26/// /0000 11093 21102 39379 49978 52005 333 69935=
0110012650999992018010323004+62267+010733FM-12+048299999V0209999C999999999999N999999999-00911-01001099781ADDAA101000431MA1999999093801MD1210051+9999REMSYN05801265 26/// /0000 11091 21100 39380 49978 52005 333 69945=
0130012650999992018010400004+62267+010733FM-12+048299999V0209999C999999999999N999999999-00891-00981099801ADDAA106001031MA1999999093821MD1210041+9999OD139900101999REMSYN06401265 16/// ///// 11089 21098 39382 49980 52004 60011 333 91101=
0110012650999992018010401004+62267+010733FM-12+048299999V0209999C999999999999N999999999-00871-00961099831ADDAA101000231MA1999999093851MD1210061+9999REMSYN05801265 26/// /0000 11087 21096 39385 49983 52006 333 69925=
0110012650999992018010402004+62267+010733FM-12+048299999V0209999C999999999999N999999999-00861-00951099831ADDAA101000231MA1999999093851MD1210051+9999REMSYN05801265 26/// /0000 11086 21095 39385 49983 52005 333 69925=
0110012650999992018010403004+62267+010733FM-12+048299999V0209999C999999999999N999999999-00841-00931099831ADDAA101000431MA1999999093861MD1210041+9999REMSYN05801265 26/// /0000 11084 21093 39386 49983 52004 333 69945=
0110012650999992018010404004+62267+010733FM-12+048299999V0209999C999999999999N999999999-00801-00881099831ADDAA101000431MA1999999093871MD1210021+9999REMSYN05801265 26/// /0000 11080 21088 39387 49983 52002 333 69945=
0110012650999992018010405004+62267+010733FM-12+048299999V0209999C999999999999N999999999-00771-00851099861ADDAA101000731MA1999999093901MD1310041+9999REMSYN05801265 26/// /0000 11077 21085 39390 49986 53004 333 69975=
0189012650999992018010406004+62267+010733FM-12+048299999V0209999C999999999999N999999999-00761-00841099871ADDAA112003031AA224003531AJ100223100220099KA1240N-01001MA1999999093911MD1210051+9999OD139900101999REMSYN08201265 16/// /0000 11076 21084 39391 49987 52005 60032 333 21100 4/022 70035 91101=
0110012650999992018010407004+62267+010733FM-12+048299999V0209999C999999999999N999999999-00741-00821099851ADDAA101000231MA1999999093901MD1210031+9999REMSYN05801265 26/// /0000 11074 21082 39390 49985 52003 333 69925=
0110012650999992018010408004+62267+010733FM-12+048299999V0209999C999999999999N999999999-00721-00791099861ADDAA101000231MA1999999093911MD1210021+9999REMSYN05801265 26/// /0000 11072 21079 39391 49986 52002 333 69925=
0110012650999992018010409004+62267+010733FM-12+048299999V0209999C999999999999N999999999-00691-00761099871ADDAA101000731MA1999999093931MD1210011+9999REMSYN05801265 26/// /0000 11069 21076 39393 49987 52001 333 69975=
0110012650999992018010410004+62267+010733FM-12+048299999V0209999C999999999999N999999999-00641-00711099881ADDAA101000831MA1999999093951MD1210051+9999REMSYN05801265 26/// /0000 11064 21071 39395 49988 52005 333 69985=
0083012650999992018010411004+62267+010733FM-12+048299999V0209999C999999999999N999999999+99999+99999999999ADDMA1999999093931MD1990021+9999REMSYN04201265 46/// ///// 1//// 2//// 39393 50002=
0124012650999992018010412004+62267+010733FM-12+048299999V0209999C999999999999N999999999+99999+99999999999ADDAA199999919MA1999999093921MD1810011+9999OD139900101999REMSYN05801265 16/// ///// 1//// 2//// 39392 58001 6//// 333 91101=
0083012650999992018010413004+62267+010733FM-12+048299999V0209999C999999999999N999999999+99999+99999999999ADDMA1999999093921MD1610031+9999REMSYN04201265 46/// ///// 1//// 2//// 39392 56003=
0110012650999992018010414004+62267+010733FM-12+048299999V0209999C999999999999N999999999-00561-00631099821ADDAA101000431MA1999999093911MD1710031+9999REMSYN05801265 26/// /0000 11056 21063 39391 49982 57003 333 69945=
0083012650999992018010415004+62267+010733FM-12+048299999V0209999C999999999999N999999999+99999+99999999999ADDMA1999999093911MD1610011+9999REMSYN04201265 46/// ///// 1//// 2//// 39391 56001=
0110012650999992018010416004+62267+010733FM-12+048299999V0209999C999999999999N999999999-00501-00561099791ADDAA101000431MA1999999093891MD1710031+9999REMSYN05801265 26/// /0000 11050 21056 39389 49979 57003 333 69945=
0083012650999992018010417004+62267+010733FM-12+048299999V0209999C999999999999N999999999+99999+99999999999ADDMA1999999093871MD1810041+9999REMSYN04201265 46/// ///// 1//// 2//// 39387 58004=
0124012650999992018010418004+62267+010733FM-12+048299999V0209999C999999999999N999999999+99999+99999999999ADDAA199999919MA1999999093861MD1610051+9999OD139900201999REMSYN05801265 16/// ///// 1//// 2//// 39386 56005 6//// 333 91102=
0110012650999992018010419004+62267+010733FM-12+048299999V0202001N001019999999N999999999-00531-00591099761ADDAA101000131MA1999999093861MD1710031+9999REMSYN05801265 26/// /2001 11053 21059 39386 49976 57003 333 69915=
0083012650999992018010420004+62267+010733FM-12+048299999V0209999C999999999999N999999999+99999+99999999999ADDMA1999999093861MD1610011+9999REMSYN04201265 46/// ///// 1//// 2//// 39386 56001=
0083012650999992018010421004+62267+010733FM-12+048299999V0209999C999999999999N999999999+99999+99999999999ADDMA1999999093861MD1410001+9999REMSYN04201265 46/// ///// 1//// 2//// 39386 54000=
0110012650999992018010422004+62267+010733FM-12+048299999V0201901N001019999999N999999999-00661-00711099791ADDAA101000091MA1999999093861MD1410001+9999REMSYN05801265 26/// /1901 11066 21071 39386 49979 54000 333 60005=
0083012650999992018010423004+62267+010733FM-12+048299999V0209999C999999999999N999999999+99999+99999999999ADDMA1999999093841MD1810021+9999REMSYN04201265 46/// ///// 1//// 2//// 39384 58002=
0130012650999992018010500004+62267+010733FM-12+048299999V0200901N001019999999N999999999-00551-00621099751ADDAA199999919MA1999999093841MD1710021+9999OD139900501999REMSYN06401265 16/// /0901 11055 21062 39384 49975 57002 6//// 333 91105=
0110012650999992018010501004+62267+010733FM-12+048299999V0201101N001019999999N999999999-00571-00651099751ADDAA101000091MA1999999093841MD1710021+9999REMSYN05801265 26/// /1101 11057 21065 39384 49975 57002 333 60005=
0110012650999992018010502004+62267+010733FM-12+048299999V0200901N001019999999N999999999-00571-00641099761ADDAA101000091MA1999999093851MD1410001+9999REMSYN05801265 26/// /0901 11057 21064 39385 49976 54000 333 60005=
0129012650999992018010503004+62267+010733FM-12+048299999V0201001N001019999999N999999999-00561-00631099761ADDAA101000231MA1999999093851MD1290019+9999REMSYN05801265 26/// /1001 11056 21063 39385 49976 54001 333 69925=EQDQ01.1    3APC3  
0083012650999992018010504004+62267+010733FM-12+048299999V0209999C999999999999N999999999+99999+99999999999ADDMA1999999093851MD1110011+9999REMSYN04201265 46/// ///// 1//// 2//// 39385 51001=
0110012650999992018010505004+62267+010733FM-12+048299999V0201501N001019999999N999999999-00721-00821099771ADDAA101000131MA1999999093831MD1710011+9999REMSYN05801265 26/// /1501 11072 21082 39383 49977 57001 333 69915=
0124012650999992018010506004+62267+010733FM-12+048299999V0209999C999999999999N999999999+99999+99999999999ADDAA199999919MA1999999093861MD1310011+9999OD139900201999REMSYN05801265 16/// ///// 1//// 2//// 39386 53001 6//// 333 91102=
0083012650999992018010507004+62267+010733FM-12+048299999V0209999C999999999999N999999999+99999+99999999999ADDMA1999999093871MD1310021+9999REMSYN04201265 46/// ///// 1//// 2//// 39387 53002=
0110012650999992018010508004+62267+010733FM-12+048299999V0202201N001019999999N999999999-00791-00891099851ADDAA101000231MA1999999093891MD1210061+9999REMSYN05801265 26/// /2201 11079 21089 39389 49985 52006 333 69925=
0083012650999992018010509004+62267+010733FM-12+048299999V0209999C999999999999N999999999+99999+99999999999ADDMA1999999093921MD1310061+9999REMSYN04201265 46/// ///// 1//// 2//// 39392 53006=
0110012650999992018010510004+62267+010733FM-12+048299999V0209999C999999999999N999999999-00851-00941099911ADDAA101000091MA1999999093931MD1210061+9999REMSYN05801265 26/// /0000 11085 21094 39393 49991 52006 333 60005=
0110012650999992018010511004+62267+010733FM-12+048299999V0202501N001019999999N999999999-00921-01031099951ADDAA101000091MA1999999093951MD1210061+9999REMSYN05801265 26/// /2501 11092 21103 39395 49995 52006 333 60005=
0130012650999992018010512004+62267+010733FM-12+048299999V0202101N001019999999N999999999-00791-00871099951ADDAA199999919MA1999999093981MD1210061+9999OD139900201999REMSYN06401265 16/// /2101 11079 21087 39398 49995 52006 6//// 333 91102=
0110012650999992018010513004+62267+010733FM-12+048299999V0201201N001019999999N999999999-00861-01001099981ADDAA101000091MA1999999094001MD1210071+9999REMSYN05801265 26/// /1201 11086 21100 39400 49998 52007 333 60005=
0110012650999992018010514004+62267+010733FM-12+048299999V0201001N001019999999N999999999-00851-00981100031ADDAA101000091MA1999999094041MD1310091+9999REMSYN05801265 26/// /1001 11085 21098 39404 40003 53009 333 60005=
0110012650999992018010515004+62267+010733FM-12+048299999V0209999C999999999999N999999999-01051-01181100091ADDAA101000091MA1999999094061MD1210081+9999REMSYN05801265 26/// /0000 11105 21118 39406 40009 52008 333 60005=
0110012650999992018010516004+62267+010733FM-12+048299999V0202801N001019999999N999999999-01051-01161100101ADDAA101000091MA1999999094071MD1110081+9999REMSYN05801265 26/// /2801 11105 21116 39407 40010 51008 333 60005=
0110012650999992018010517004+62267+010733FM-12+048299999V0202101N001019999999N999999999-01231-01351100151ADDAA101000091MA1999999094071MD1210031+9999REMSYN05801265 26/// /2101 11123 21135 39407 40015 52003 333 60005=
0130012650999992018010518004+62267+010733FM-12+048299999V0209999C999999999999N999999999-01311-01431100201ADDAA199999919MA1999999094101MD1210041+9999OD139900401999REMSYN06401265 16/// /0000 11131 21143 39410 40020 52004 6//// 333 91104=
0110012650999992018010519004+62267+010733FM-12+048299999V0202601N001019999999N999999999-01311-01401100211ADDAA101000091MA1999999094111MD1210041+9999REMSYN05801265 26/// /2601 11131 21140 39411 40021 52004 333 60005=
0110012650999992018010520004+62267+010733FM-12+048299999V0200201N001019999999N999999999-01171-01271100231ADDAA101000091MA1999999094161MD1310091+9999REMSYN05801265 26/// /0201 11117 21127 39416 40023 53009 333 60005=
0110012650999992018010521004+62267+010733FM-12+048299999V0203501N001019999999N999999999-01101-01221100251ADDAA101000091MA1999999094201MD1310101+9999REMSYN05801265 26/// /3501 11110 21122 39420 40025 53010 333 60005=
0110012650999992018010522004+62267+010733FM-12+048299999V0202801N001019999999N999999999-01141-01261100281ADDAA101000091MA1999999094221MD1210111+9999REMSYN05801265 26/// /2801 11114 21126 39422 40028 52011 333 60005=
0110012650999992018010523004+62267+010733FM-12+048299999V0200101N001019999999N999999999-00951-01091100301ADDAA101000091MA1999999094281MD1310121+9999REMSYN05801265 26/// /0101 11095 21109 39428 40030 53012 333 60005=
0130012650999992018010600004+62267+010733FM-12+048299999V0200601N002019999999N999999999-00691-00841100281ADDAA106000091MA1999999094311MD1210111+9999OD139900401999REMSYN06401265 16/// /0602 11069 21084 39431 40028 52011 60001 333 91104=
0110012650999992018010601004+62267+010733FM-12+048299999V0200901N001019999999N999999999-00641-00851100321ADDAA101000091MA1999999094361MD1210131+9999REMSYN05801265 26/// /0901 11064 21085 39436 40032 52013 333 60005=
0110012650999992018010602004+62267+010733FM-12+048299999V0200901N003019999999N999999999-00601-00831100361ADDAA101000091MA1999999094411MD1310121+9999REMSYN05801265 26/// /0903 11060 21083 39441 40036 53012 333 60005=
0110012650999992018010603004+62267+010733FM-12+048299999V0201001N002019999999N999999999-00741-00971100401ADDAA101000091MA1999999094421MD1110111+9999REMSYN05801265 26/// /1002 11074 21097 39442 40040 51011 333 60005=
0110012650999992018010604004+62267+010733FM-12+048299999V0201801N002019999999N999999999-00741-00871100461ADDAA101000091MA1999999094471MD1210111+9999REMSYN05801265 26/// /1802 11074 21087 39447 40046 52011 333 60005=
0110012650999992018010605004+62267+010733FM-12+048299999V0203001N001019999999N999999999-00761-00951100541ADDAA101000091MA1999999094541MD1310141+9999REMSYN05801265 26/// /3001 11076 21095 39454 40054 53014 333 60005=
0172012650999992018010606004+62267+010733FM-12+048299999V0201201N001019999999N999999999-00841-01011100631ADDAA112000091AJ100273100270099KA1240N-01361MA1999999094611MD1310181+9999OD139900701999REMSYN07601265 16/// /1201 11084 21101 39461 40063 53018 60002 333 21136 4/027 91107=
0039012650999992018010607004+62267+010733FM-12+048299999V0209999C999999999999N999999999+99999+99999999999REMSYN03001265 46/// ///// 1//// 2////=
0110012650999992018010608004+62267+010733FM-12+048299999V0202701N002019999999N999999999-01201-01301100901ADDAA101000091MA1999999094781MD1210241+9999REMSYN05801265 26/// /2702 11120 21130 39478 40090 52024 333 60005=
0110012650999992018010609004+62267+010733FM-12+048299999V0203101N001019999999N999999999-01311-01471101001ADDAA101000091MA1999999094861MD1210261+9999REMSYN05801265 26/// /3101 11131 21147 39486 40100 52026 333 60005=
0110012650999992018010610004+62267+010733FM-12+048299999V0202601N001019999999N999999999-01381-01511101101ADDAA101000091MA1999999094931MD1210221+9999REMSYN05801265 26/// /2601 11138 21151 39493 40110 52022 333 60005=
0110012650999992018010611004+62267+010733FM-12+048299999V0201101N001019999999N999999999-01361-01491101131ADDAA101000091MA1999999094961MD1110181+9999REMSYN05801265 26/// /1101 11136 21149 39496 40113 51018 333 60005=
0130012650999992018010612004+62267+010733FM-12+048299999V0209999C999999999999N999999999-01151-01271101101ADDAA106000091MA1999999094981MD1110121+9999OD139900301999REMSYN06401265 16/// /0000 11115 21127 39498 40110 51012 60001 333 91103=
0110012650999992018010613004+62267+010733FM-12+048299999V0200501N001019999999N999999999-01141-01271101171ADDAA101000091MA1999999095051MD1310121+9999REMSYN05801265 26/// /0501 11114 21127 39505 40117 53012 333 60005=
0110012650999992018010614004+62267+010733FM-12+048299999V0201701N001019999999N999999999-01241-01361101321ADDAA101000131MA1999999095171MD1310211+9999REMSYN05801265 26/// /1701 11124 21136 39517 40132 53021 333 69915=
0110012650999992018010615004+62267+010733FM-12+048299999V0203201N004019999999N999999999-00591-00921101301ADDAA101000131MA1999999095301MD1310321+9999REMSYN05801265 26/// /3204 11059 21092 39530 40130 53032 333 69915=
0110012650999992018010616004+62267+010733FM-12+048299999V0203201N006019999999N999999999-00611-01021101461ADDAA101000091MA1999999095441MD1310391+9999REMSYN05801265 26/// /3206 11061 21102 39544 40146 53039 333 60005=
0110012650999992018010617004+62267+010733FM-12+048299999V0203501N002019999999N999999999-00681-01011101561ADDAA101000091MA1999999095521MD1110351+9999REMSYN05801265 26/// /3502 11068 21101 39552 40156 51035 333 60005=
0149012650999992018010618004+62267+010733FM-12+048299999V0202601N002019999999N999999999-01091-01241101771ADDAA112000231KA1120M-00571MA1999999095631MD1310321+9999OD139901201999REMSYN07001265 16/// /2602 11109 21124 39563 40177 53032 69922 333 11057 91112=
0110012650999992018010619004+62267+010733FM-12+048299999V0202701N001019999999N999999999-01211-01341101901ADDAA101000091MA1999999095721MD1310281+9999REMSYN05801265 26/// /2701 11121 21134 39572 40190 53028 333 60005=
0110012650999992018010620004+62267+010733FM-12+048299999V0200601N001019999999N999999999-01371-01531101991ADDAA101000091MA1999999095771MD1110251+9999REMSYN05801265 26/// /0601 11137 21153 39577 40199 51025 333 60005=
0039012650999992018010621004+62267+010733FM-12+048299999V0209999C999999999999N999999999+99999+99999999999REMSYN03001265 46/// ///// 1//// 2////=
0110012650999992018010622004+62267+010733FM-12+048299999V0202701N001019999999N999999999-01671-01821102211ADDAA101000091MA1999999095911MD1310201+9999REMSYN05801265 26/// /2701 11167 21182 39591 40221 53020 333 60005=
0110012650999992018010623004+62267+010733FM-12+048299999V0209999C999999999999N999999999-01851-01951102291ADDAA101000091MA1999999095941MD1110161+9999REMSYN05801265 26/// /0000 11185 21195 39594 40229 51016 333 60005=
0130012650999992018010700004+62267+010733FM-12+048299999V0200401N001019999999N999999999-02061-02261102371ADDAA106000091MA1999999095971MD1110141+9999OD139900401999REMSYN06401265 16/// /0401 11206 21226 39597 40237 51014 60001 333 91104=
0110012650999992018010701004+62267+010733FM-12+048299999V0209999C999999999999N999999999-02181-02391102411ADDAA101000091MA1999999095971MD1990061+9999REMSYN05801265 26/// /0000 11218 21239 39597 40241 50006 333 60005=
0110012650999992018010702004+62267+010733FM-12+048299999V0200901N001019999999N999999999-02311-02551102451ADDAA101000091MA1999999095981MD1990051+9999REMSYN05801265 26/// /0901 11231 21255 39598 40245 50005 333 60005=
0110012650999992018010703004+62267+010733FM-12+048299999V0201001N001019999999N999999999-02311-02511102431ADDAA101000091MA1999999095961MD1810011+9999REMSYN05801265 26/// /1001 11231 21251 39596 40243 58001 333 60005=
0110012650999992018010704004+62267+010733FM-12+048299999V0203101N001019999999N999999999-02331-02551102341ADDAA101000091MA1999999095871MD1810101+9999REMSYN05801265 26/// /3101 11233 21255 39587 40234 58010 333 60005=
0110012650999992018010705004+62267+010733FM-12+048299999V0203401N002019999999N999999999-02041-02201102181ADDAA101000091MA1999999095791MD1810201+9999REMSYN05801265 26/// /3402 11204 21220 39579 40218 58020 333 60005=
0189012650999992018010706004+62267+010733FM-12+048299999V0202101N002019999999N999999999-01661-01821101931ADDAA112000091AA224000231AJ100293100290099KA1240N-02471MA1999999095641MD1810321+9999OD139900401999REMSYN08201265 16/// /2102 11166 21182 39564 40193 58032 60002 333 21247 4/029 70002 91104=
0110012650999992018010707004+62267+010733FM-12+048299999V0202101N003019999999N999999999-00832-00912101571ADDAA101000091MA1999999095481MD1810401+9999REMSYN05801265 26/// /2103 11083 21091 39548 40157 58040 333 60005=
0110012650999992018010708004+62267+010733FM-12+048299999V0202501N003019999999N999999999-00451-00911101271ADDAA101000091MA1999999095301MD1810491+9999REMSYN05801265 26/// /2503 11045 21091 39530 40127 58049 333 60005=
0110012650999992018010709004+62267+010733FM-12+048299999V0202301N004019999999N999999999-00361-00901101231ADDAA101000091MA1999999095281MD1610341+9999REMSYN05801265 26/// /2304 11036 21090 39528 40123 56034 333 60005=
0110012650999992018010710004+62267+010733FM-12+048299999V0202301N007019999999N999999999-00251-00651101171ADDAA101000091MA1999999095251MD1610221+9999REMSYN05801265 26/// /2307 11025 21065 39525 40117 56022 333 60005=
0110012650999992018010711004+62267+010733FM-12+048299999V0202401N005019999999N999999999-00181-00551101191ADDAA101000091MA1999999095281MD1510021+9999REMSYN05801265 26/// /2405 11018 21055 39528 40119 55002 333 60005=
0130012650999992018010712004+62267+010733FM-12+048299999V0202501N004019999999N999999999-00071-00641101271ADDAA106000091MA1999999095381MD1310101+9999OD139901501999REMSYN06401265 16/// /2504 11007 21064 39538 40127 53010 60001 333 91115=
0110012650999992018010713004+62267+010733FM-12+048299999V0202701N005019999999N999999999-00171-00771101461ADDAA101000091MA1999999095551MD1310301+9999REMSYN05801265 26/// /2705 11017 21077 39555 40146 53030 333 60005=
0110012650999992018010714004+62267+010733FM-12+048299999V0203301N005019999999N999999999-00231-00791101581ADDAA101000091MA1999999095641MD1310351+9999REMSYN05801265 26/// /3305 11023 21079 39564 40158 53035 333 60005=
0110012650999992018010715004+62267+010733FM-12+048299999V0203201N006019999999N999999999-00241-00781101671ADDAA101000131MA1999999095721MD1110331+9999REMSYN05801265 26/// /3206 11024 21078 39572 40167 51033 333 69915=
0110012650999992018010716004+62267+010733FM-12+048299999V0203301N003019999999N999999999-00311-00681101751ADDAA101000091MA1999999095781MD1110241+9999REMSYN05801265 26/// /3303 11031 21068 39578 40175 51024 333 60005=
0110012650999992018010717004+62267+010733FM-12+048299999V0203201N006019999999N999999999-00281-00731101831ADDAA101000131MA1999999095861MD1110231+9999REMSYN05801265 26/// /3206 11028 21073 39586 40183 51023 333 69915=
0149012650999992018010718004+62267+010733FM-12+048299999V0203001N004019999999N999999999-00331-00591101921ADDAA112000331KA1120M-00061MA1999999095931MD1210211+9999OD139901201999REMSYN07001265 16/// /3004 11033 21059 39593 40192 52021 69932 333 11006 91112=
0110012650999992018010719004+62267+010733FM-12+048299999V0202801N002019999999N999999999-00361-00541102021ADDAA101000131MA1999999096021MD1310231+9999REMSYN05801265 26/// /2802 11036 21054 39602 40202 53023 333 69915=
0110012650999992018010720004+62267+010733FM-12+048299999V0201201N002019999999N999999999-00531-00641102201ADDAA101000091MA1999999096151MD1310291+9999REMSYN05801265 26/// /1202 11053 21064 39615 40220 53029 333 60005=
0110012650999992018010721004+62267+010733FM-12+048299999V0202801N001019999999N999999999-00691-00791102331ADDAA101000091MA1999999096241MD1310311+9999REMSYN05801265 26/// /2801 11069 21079 39624 40233 53031 333 60005=
0110012650999992018010722004+62267+010733FM-12+048299999V0200101N001019999999N999999999-00761-00811102431ADDAA101000091MA1999999096331MD1110311+9999REMSYN05801265 26/// /0101 11076 21081 39633 40243 51031 333 60005=
0110012650999992018010723004+62267+010733FM-12+048299999V0201401N001019999999N999999999-00801-00861102481ADDAA101000091MA1999999096361MD1310221+9999REMSYN05801265 26/// /1401 11080 21086 39636 40248 53022 333 60005=
0130012650999992018010800004+62267+010733FM-12+048299999V0201301N001019999999N999999999-01011-01131102561ADDAA106000131MA1999999096391MD1110151+9999OD139900501999REMSYN06401265 16/// /1301 11101 21113 39639 40256 51015 69911 333 91105=
0110012650999992018010801004+62267+010733FM-12+048299999V0203101N001019999999N999999999-01201-01331102671ADDAA101000091MA1999999096451MD1310131+9999REMSYN05801265 26/// /3101 11120 21133 39645 40267 53013 333 60005=
0110012650999992018010802004+62267+010733FM-12+048299999V0202501N001019999999N999999999-01331-01471102761ADDAA101000091MA1999999096501MD1310131+9999REMSYN05801265 26/// /2501 11133 21147 39650 40276 53013 333 60005=
0110012650999992018010803004+62267+010733FM-12+048299999V0209999C999999999999N999999999-01371-01531102781ADDAA101000091MA1999999096511MD1110121+9999REMSYN05801265 26/// /0000 11137 21153 39651 40278 51012 333 60005=
0110012650999992018010804004+62267+010733FM-12+048299999V0201701N001019999999N999999999-01431-01541102841ADDAA101000091MA1999999096551MD1210091+9999REMSYN05801265 26/// /1701 11143 21154 39655 40284 52009 333 60005=
0110012650999992018010805004+62267+010733FM-12+048299999V0209999C999999999999N999999999-01511-01661102871ADDAA101000091MA1999999096561MD1210071+9999REMSYN05801265 26/// /0000 11151 21166 39656 40287 52007 333 60005=
0189012650999992018010806004+62267+010733FM-12+048299999V0203101N001019999999N999999999-01641-01811102931ADDAA112000131AA224000431AJ100223100220099KA1240N-01661MA1999999096591MD1210081+9999OD139900201999REMSYN08201265 16/// /3101 11164 21181 39659 40293 52008 69912 333 21166 4/022 70004 91102=
0110012650999992018010807004+62267+010733FM-12+048299999V0201801N001019999999N999999999-01611-01771102981ADDAA101000091MA1999999096651MD1310111+9999REMSYN05801265 26/// /1801 11161 21177 39665 40298 53011 333 60005=
0110012650999992018010808004+62267+010733FM-12+048299999V0201601N001019999999N999999999-01651-01791103051ADDAA101000091MA1999999096691MD1210131+9999REMSYN05801265 26/// /1601 11165 21179 39669 40305 52013 333 60005=
0110012650999992018010809004+62267+010733FM-12+048299999V0203201N002019999999N999999999-01691-01841103191ADDAA101000091MA1999999096821MD1310221+9999REMSYN05801265 26/// /3202 11169 21184 39682 40319 53022 333 60005=
0110012650999992018010810004+62267+010733FM-12+048299999V0201001N001019999999N999999999-01641-01811103271ADDAA101000091MA1999999096911MD1310251+9999REMSYN05801265 26/// /1001 11164 21181 39691 40327 53025 333 60005=
0110012650999992018010811004+62267+010733FM-12+048299999V0201801N001019999999N999999999-01621-01791103281ADDAA101000091MA1999999096931MD1110231+9999REMSYN05801265 26/// /1801 11162 21179 39693 40328 51023 333 60005=
0130012650999992018010812004+62267+010733FM-12+048299999V0203101N001019999999N999999999-01711-01891103321ADDAA106000091MA1999999096941MD1990121+9999OD139900301999REMSYN06401265 16/// /3101 11171 21189 39694 40332 50012 60001 333 91103=
0110012650999992018010813004+62270+010732FM-12+048299999V0203471N0005199999999999999999-01471-01631103241ADDAA101999999KA1010M-01451KA2010N-01711MA1999999096921MD1010011+9999OD140100181099OD299900111999REMSYN004BUFR
0129012650999992018010814004+62267+010733FM-12+048299999V0201501N001019999999N999999999-01331-01461103201ADDAA101000091MA1999999096921MD1790089+9999REMSYN05801265 26/// /1501 11133 21146 39692 40320 54001 333 60005=EQDQ01.1    3APC3  
0110012650999992018010815004+62267+010733FM-12+048299999V0202601N001019999999N999999999-01401-01551103241ADDAA101000091MA1999999096941MD1510001+9999REMSYN05801265 26/// /2601 11140 21155 39694 40324 55000 333 60005=
0110012650999992018010816004+62267+010733FM-12+048299999V0201601N001019999999N999999999-01511-01651103291ADDAA101000091MA1999999096961MD1310051+9999REMSYN05801265 26/// /1601 11151 21165 39696 40329 53005 333 60005=
0110012650999992018010817004+62267+010733FM-12+048299999V0203201N001019999999N999999999-01441-01571103261ADDAA101000091MA1999999096951MD1990031+9999REMSYN05801265 26/// /3201 11144 21157 39695 40326 50003 333 60005=
0149012650999992018010818004+62267+010733FM-12+048299999V0203101N001019999999N999999999-01421-01571103261ADDAA112000091KA1120M-01321MA1999999096951MD1990011+9999OD139900301999REMSYN07001265 16/// /3101 11142 21157 39695 40326 50001 60002 333 11132 91103=
0110012650999992018010819004+62267+010733FM-12+048299999V0202001N001019999999N999999999-01361-01501103301ADDAA101000091MA1999999097001MD1310041+9999REMSYN05801265 26/// /2001 11136 21150 39700 40330 53004 333 60005=
0110012650999992018010820004+62267+010733FM-12+048299999V0201901N002019999999N999999999-01171-01291103231ADDAA101000091MA1999999096981MD1990041+9999REMSYN05801265 26/// /1902 11117 21129 39698 40323 50004 333 60005=
0110012650999992018010821004+62267+010733FM-12+048299999V0203301N001019999999N999999999-01161-01281103281ADDAA101000091MA1999999097031MD1310081+9999REMSYN05801265 26/// /3301 11116 21128 39703 40328 53008 333 60005=
0110012650999992018010822004+62267+010733FM-12+048299999V0203301N001019999999N999999999-01231-01351103291ADDAA101000091MA1999999097021MD1990021+9999REMSYN05801265 26/// /3301 11123 21135 39702 40329 50002 333 60005=
0110012650999992018010823004+62267+010733FM-12+048299999V0200901N001019999999N999999999-01321-01461103301ADDAA101000091MA1999999097011MD1990021+9999REMSYN05801265 26/// /0901 11132 21146 39701 40330 50002 333 60005=
0130012650999992018010900004+62267+010733FM-12+048299999V0203301N001019999999N999999999-01431-01571103361ADDAA106000091MA1999999097041MD1310011+9999OD139900301999REMSYN06401265 16/// /3301 11143 21157 39704 40336 53001 60001 333 91103=
0110012650999992018010901004+62267+010733FM-12+048299999V0202801N001019999999N999999999-01471-01621103391ADDAA101000091MA1999999097061MD1310041+9999REMSYN05801265 26/// /2801 11147 21162 39706 40339 53004 333 60005=
0110012650999992018010902004+62267+010733FM-12+048299999V0201901N001019999999N999999999-01481-01621103421ADDAA101000091MA1999999097091MD1210081+9999REMSYN05801265 26/// /1901 11148 21162 39709 40342 52008 333 60005=
0110012650999992018010903004+62267+010733FM-12+048299999V0209999C999999999999N999999999-01631-01781103441ADDAA101000091MA1999999097071MD1990031+9999REMSYN05801265 26/// /0000 11163 21178 39707 40344 50003 333 60005=
0110012650999992018010904004+62267+010733FM-12+048299999V0201501N001019999999N999999999-01731-01891103431ADDAA101000091MA1999999097031MD1810031+9999REMSYN05801265 26/// /1501 11173 21189 39703 40343 58003 333 60005=
0110012650999992018010905004+62267+010733FM-12+048299999V0203201N001019999999N999999999-01931-02141103481ADDAA101000091MA1999999097041MD1510041+9999REMSYN05801265 26/// /3201 11193 21214 39704 40348 55004 333 60005=
0189012650999992018010906004+62267+010733FM-12+048299999V0209999C999999999999N999999999-02081-02311103541ADDAA112000091AA224000091AJ100213100210099KA1240N-02081MA1999999097061MD1510011+9999OD139900301999REMSYN08201265 16/// /0000 11208 21231 39706 40354 55001 60002 333 21208 4/021 70000 91103=
0110012650999992018010907004+62267+010733FM-12+048299999V0200801N001019999999N999999999-02161-02351103601ADDAA101000091MA1999999097091MD1310061+9999REMSYN05801265 26/// /0801 11216 21235 39709 40360 53006 333 60005=
0110012650999992018010908004+62267+010733FM-12+048299999V0209999C999999999999N999999999-02151-02331103611ADDAA101000091MA1999999097101MD1210061+9999REMSYN05801265 26/// /0000 11215 21233 39710 40361 52006 333 60005=
0110012650999992018010909004+62267+010733FM-12+048299999V0209999C999999999999N999999999-02281-02471103691ADDAA101000091MA1999999097141MD1310071+9999REMSYN05801265 26/// /0000 11228 21247 39714 40369 53007 333 60005=
0110012650999992018010910004+62267+010733FM-12+048299999V0200901N001019999999N999999999-02261-02451103691ADDAA101000091MA1999999097141MD1210041+9999REMSYN05801265 26/// /0901 11226 21245 39714 40369 52004 333 60005=
0110012650999992018010911004+62267+010733FM-12+048299999V0209999C999999999999N999999999-02141-02341103631ADDAA101000091MA1999999097121MD1990021+9999REMSYN05801265 26/// /0000 11214 21234 39712 40363 50002 333 60005=
0130012650999992018010912004+62267+010733FM-12+048299999V0209999C999999999999N999999999-02111-02361103601ADDAA106000091MA1999999097101MD1810041+9999OD139900201999REMSYN06401265 16/// /0000 11211 21236 39710 40360 58004 60001 333 91102=
0110012650999992018010913004+62267+010733FM-12+048299999V0201301N001019999999N999999999-02121-02341103561ADDAA101000091MA1999999097071MD1710071+9999REMSYN05801265 26/// /1301 11212 21234 39707 40356 57007 333 60005=
0110012650999992018010914004+62267+010733FM-12+048299999V0202001N001019999999N999999999-02121-02311103531ADDAA101000091MA1999999097041MD1710081+9999REMSYN05801265 26/// /2001 11212 21231 39704 40353 57008 333 60005=
0110012650999992018010915004+62267+010733FM-12+048299999V0209999C999999999999N999999999-02141-02341103521ADDAA101000091MA1999999097021MD1710091+9999REMSYN05801265 26/// /0000 11214 21234 39702 40352 57009 333 60005=
0110012650999992018010916004+62267+010733FM-12+048299999V0201301N001019999999N999999999-02181-02361103481ADDAA101000091MA1999999096971MD1710101+9999REMSYN05801265 26/// /1301 11218 21236 39697 40348 57010 333 60005=
0110012650999992018010917004+62267+010733FM-12+048299999V0202301N001019999999N999999999-02111-02291103481ADDAA101000091MA1999999096991MD1510051+9999REMSYN05801265 26/// /2301 11211 21229 39699 40348 55005 333 60005=
0149012650999992018010918004+62267+010733FM-12+048299999V0201501N001019999999N999999999-02141-02331103471ADDAA112000091KA1120M-01981MA1999999096971MD1610051+9999OD139900201999REMSYN07001265 16/// /1501 11214 21233 39697 40347 56005 60002 333 11198 91102=
0110012650999992018010919004+62267+010733FM-12+048299999V0209999C999999999999N999999999-02201-02401103461ADDAA101000091MA1999999096951MD1810031+9999REMSYN05801265 26/// /0000 11220 21240 39695 40346 58003 333 60005=
0110012650999992018010920004+62267+010733FM-12+048299999V0200301N001019999999N999999999-02181-02381103401ADDAA101000091MA1999999096901MD1810091+9999REMSYN05801265 26/// /0301 11218 21238 39690 40340 58009 333 60005=
0110012650999992018010921004+62267+010733FM-12+048299999V0200501N001019999999N999999999-02211-02411103421ADDAA101000091MA1999999096911MD1510061+9999REMSYN05801265 26/// /0501 11221 21241 39691 40342 55006 333 60005=
0110012650999992018010922004+62267+010733FM-12+048299999V0202901N001019999999N999999999-02271-02471103411ADDAA101000091MA1999999096881MD1810071+9999REMSYN05801265 26/// /2901 11227 21247 39688 40341 58007 333 60005=
0110012650999992018010923004+62267+010733FM-12+048299999V0202901N001019999999N999999999-02271-02471103381ADDAA101000091MA1999999096861MD1810041+9999REMSYN05801265 26/// /2901 11227 21247 39686 40338 58004 333 60005=
0130012650999992018011000004+62267+010733FM-12+048299999V0200601N001019999999N999999999-02321-02531103371ADDAA106000091MA1999999096841MD1710071+9999OD139900201999REMSYN06401265 16/// /0601 11232 21253 39684 40337 57007 60001 333 91102=
0110012650999992018011001004+62267+010733FM-12+048299999V0209999C999999999999N999999999-02401-02621103361ADDAA101000091MA1999999096811MD1710061+9999REMSYN05801265 26/// /0000 11240 21262 39681 40336 57006 333 60005=
0110012650999992018011002004+62267+010733FM-12+048299999V0209999C999999999999N999999999-02511-02741103351ADDAA101000091MA1999999096771MD1810091+9999REMSYN05801265 26/// /0000 11251 21274 39677 40335 58009 333 60005=
0110012650999992018011003004+62267+010733FM-12+048299999V0200101N001019999999N999999999-02591-02831103331ADDAA101000091MA1999999096731MD1810101+9999REMSYN05801265 26/// /0101 11259 21283 39673 40333 58010 333 60005=
0110012650999992018011004004+62267+010733FM-12+048299999V0209999C999999999999N999999999-02651-02891103301ADDAA101000091MA1999999096691MD1710121+9999REMSYN05801265 26/// /0000 11265 21289 39669 40330 57012 333 60005=
0110012650999992018011005004+62267+010733FM-12+048299999V0200901N001019999999N999999999-02751-03001103291ADDAA101000091MA1999999096651MD1710121+9999REMSYN05801265 26/// /0901 11275 21300 39665 40329 57012 333 60005=
0189012650999992018011006004+62267+010733FM-12+048299999V0209999C999999999999N999999999-02811-03081103311ADDAA112000091AA224000091AJ100223100220099KA1240N-02811MA1999999096651MD1610081+9999OD139900201999REMSYN08201265 16/// /0000 11281 21308 39665 40331 56008 60002 333 21281 4/022 70000 91102=
0110012650999992018011007004+62267+010733FM-12+048299999V0200601N001019999999N999999999-02861-03121103321ADDAA101000091MA1999999096651MD1510041+9999REMSYN05801265 26/// /0601 11286 21312 39665 40332 55004 333 60005=
0110012650999992018011008004+62267+010733FM-12+048299999V0209999C999999999999N999999999-02861-03121103331ADDAA101000091MA1999999096661MD1310011+9999REMSYN05801265 26/// /0000 11286 21312 39666 40333 53001 333 60005=
0110012650999992018011009004+62267+010733FM-12+048299999V0209999C999999999999N999999999-02881-03141103371ADDAA101000091MA1999999096691MD1210041+9999REMSYN05801265 26/// /0000 11288 21314 39669 40337 52004 333 60005=
0110012650999992018011010004+62267+010733FM-12+048299999V0209999C999999999999N999999999-02821-03081103361ADDAA101000091MA1999999096691MD1210051+9999REMSYN05801265 26/// /0000 11282 21308 39669 40336 52005 333 60005=
0110012650999992018011011004+62267+010733FM-12+048299999V0200701N001019999999N999999999-02691-02951103301ADDAA101000091MA1999999096671MD1990001+9999REMSYN05801265 26/// /0701 11269 21295 39667 40330 50000 333 60005=
0130012650999992018011012004+62267+010733FM-12+048299999V0209999C999999999999N999999999-02611-02871103191ADDAA106000091MA1999999096601MD1810091+9999OD139900101999REMSYN06401265 16/// /0000 11261 21287 39660 40319 58009 60001 333 91101=
0110012650999992018011013004+62267+010733FM-12+048299999V0201801N001019999999N999999999-02671-02931103211ADDAA101000091MA1999999096601MD1610091+9999REMSYN05801265 26/// /1801 11267 21293 39660 40321 56009 333 60005=
0110012650999992018011014004+62267+010733FM-12+048299999V0202401N001019999999N999999999-02711-02961103211ADDAA101000091MA1999999096591MD1610071+9999REMSYN05801265 26/// /2401 11271 21296 39659 40321 56007 333 60005=
0129012650999992018011015004+62267+010733FM-12+048299999V0202801N001019999999N999999999-02801-03071103241ADDAA101000091MA1999999096591MD1290059+9999REMSYN05801265 26/// /2801 11280 21307 39659 40324 54001 333 60005=EQDQ01.1    3APC3  
0110012650999992018011016004+62267+010733FM-12+048299999V0202201N001019999999N999999999-02841-03101103251ADDAA101000091MA1999999096581MD1710011+9999REMSYN05801265 26/// /2201 11284 21310 39658 40325 57001 333 60005=
0129012650999992018011017004+62267+010733FM-12+048299999V0202201N001019999999N999999999-02871-03131103251ADDAA101000091MA1999999096581MD1290049+9999REMSYN05801265 26/// /2201 11287 21313 39658 40325 54001 333 60005=EQDQ01.1    3APC3  
0149012650999992018011018004+62267+010733FM-12+048299999V0209999C999999999999N999999999-02911-03191103261ADDAA112000091KA1120M-02561MA1999999096581MD1710011+9999OD139900201999REMSYN07001265 16/// /0000 11291 21319 39658 40326 57001 60002 333 11256 91102=
0110012650999992018011019004+62267+010733FM-12+048299999V0201901N001019999999N999999999-02851-03111103221ADDAA101000091MA1999999096561MD1710031+9999REMSYN05801265 26/// /1901 11285 21311 39656 40322 57003 333 60005=
0110012650999992018011020004+62267+010733FM-12+048299999V0201301N001019999999N999999999-02871-03131103191ADDAA101000091MA1999999096531MD1710051+9999REMSYN05801265 26/// /1301 11287 21313 39653 40319 57005 333 60005=
0110012650999992018011021004+62267+010733FM-12+048299999V0209999C999999999999N999999999-02851-03111103181ADDAA101000091MA1999999096521MD1710061+9999REMSYN05801265 26/// /0000 11285 21311 39652 40318 57006 333 60005=
0110012650999992018011022004+62267+010733FM-12+048299999V0209999C999999999999N999999999-02701-02951103141ADDAA101000091MA1999999096521MD1610051+9999REMSYN05801265 26/// /0000 11270 21295 39652 40314 56005 333 60005=
0110012650999992018011023004+62267+010733FM-12+048299999V0209999C999999999999N999999999-02571-02811103071ADDAA101000091MA1999999096491MD1710041+9999REMSYN05801265 26/// /0000 11257 21281 39649 40307 57004 333 60005=
0130012650999992018011100004+62267+010733FM-12+048299999V0200701N001019999999N999999999-02431-02671102981ADDAA106000091MA1999999096441MD1810081+9999OD139900201999REMSYN06401265 16/// /0701 11243 21267 39644 40298 58008 60001 333 91102=
0110012650999992018011101004+62267+010733FM-12+048299999V0200701N001019999999N999999999-02211-02421102891ADDAA101000091MA1999999096411MD1710111+9999REMSYN05801265 26/// /0701 11221 21242 39641 40289 57011 333 60005=
0110012650999992018011102004+62267+010733FM-12+048299999V0200601N001019999999N999999999-02051-02251102821ADDAA101000091MA1999999096391MD1710101+9999REMSYN05801265 26/// /0601 11205 21225 39639 40282 57010 333 60005=
0110012650999992018011103004+62267+010733FM-12+048299999V0200701N001019999999N999999999-01901-02091102761ADDAA101000091MA1999999096371MD1710061+9999REMSYN05801265 26/// /0701 11190 21209 39637 40276 57006 333 60005=
0110012650999992018011104004+62267+010733FM-12+048299999V0200301N001019999999N999999999-01751-01931102731ADDAA101000091MA1999999096381MD1710021+9999REMSYN05801265 26/// /0301 11175 21193 39638 40273 57002 333 60005=
0129012650999992018011105004+62267+010733FM-12+048299999V0200301N001019999999N999999999-01521-01671102691ADDAA101000091MA1999999096391MD1790139+9999REMSYN05801265 26/// /0301 11152 21167 39639 40269 54001 333 60005=EQDQ01.1    3APC3  
0189012650999992018011106004+62267+010733FM-12+048299999V0203001N001019999999N999999999-01241-01371102691ADDAA112000091AA224000091AJ100223100220099KA1240N-02931MA1999999096461MD1310081+9999OD139900301999REMSYN08201265 16/// /3001 11124 21137 39646 40269 53008 60002 333 21293 4/022 70000 91103=
0110012650999992018011107004+62267+010733FM-12+048299999V0203601N002019999999N999999999-00961-01071102681ADDAA101000091MA1999999096511MD1310121+9999REMSYN05801265 26/// /3602 11096 21107 39651 40268 53012 333 60005=
0110012650999992018011108004+62267+010733FM-12+048299999V0203401N001019999999N999999999-01091-01211102811ADDAA101000091MA1999999096611MD1310221+9999REMSYN05801265 26/// /3401 11109 21121 39661 40281 53022 333 60005=
0110012650999992018011109004+62267+010733FM-12+048299999V0202901N001019999999N999999999-01081-01201102861ADDAA101000091MA1999999096651MD1210191+9999REMSYN05801265 26/// /2901 11108 21120 39665 40286 52019 333 60005=
0110012650999992018011110004+62267+010733FM-12+048299999V0202501N001019999999N999999999-01001-01111102861ADDAA101000091MA1999999096671MD1110171+9999REMSYN05801265 26/// /2501 11100 21111 39667 40286 51017 333 60005=
0110012650999992018011111004+62267+010733FM-12+048299999V0203401N001019999999N999999999-00931-01041102811ADDAA101000091MA1999999096651MD1990041+9999REMSYN05801265 26/// /3401 11093 21104 39665 40281 50004 333 60005=
0130012650999992018011112004+62267+010733FM-12+048299999V0200301N001019999999N999999999-00891-00981102831ADDAA106000091MA1999999096671MD1210031+9999OD139900401999REMSYN06401265 16/// /0301 11089 21098 39667 40283 52003 60001 333 91104=
0110012650999992018011113004+62267+010733FM-12+048299999V0203501N001019999999N999999999-00821-00911102851ADDAA101000091MA1999999096701MD1310031+9999REMSYN05801265 26/// /3501 11082 21091 39670 40285 53003 333 60005=
0110012650999992018011114004+62267+010733FM-12+048299999V0202901N001019999999N999999999-00801-00901102861ADDAA101000091MA1999999096721MD1110071+9999REMSYN05801265 26/// /2901 11080 21090 39672 40286 51007 333 60005=
0110012650999992018011115004+62267+010733FM-12+048299999V0203601N001019999999N999999999-00671-00741102921ADDAA101000091MA1999999096801MD1310121+9999REMSYN05801265 26/// /3601 11067 21074 39680 40292 53012 333 60005=
0110012650999992018011116004+62267+010733FM-12+048299999V0200401N001019999999N999999999-00601-00671102941ADDAA101000091MA1999999096841MD1310141+9999REMSYN05801265 26/// /0401 11060 21067 39684 40294 53014 333 60005=
0110012650999992018011117004+62267+010733FM-12+048299999V0201901N002019999999N999999999-00441-00511102911ADDAA101000091MA1999999096841MD1110121+9999REMSYN05801265 26/// /1902 11044 21051 39684 40291 51012 333 60005=
0149012650999992018011118004+62267+010733FM-12+048299999V0202501N001019999999N999999999-00441-00541102971ADDAA112000091KA1120M-00361MA1999999096901MD1310101+9999OD139900401999REMSYN07001265 16/// /2501 11044 21054 39690 40297 53010 60002 333 11036 91104=
0110012650999992018011119004+62267+010733FM-12+048299999V0203001N001019999999N999999999-00551-00661103091ADDAA101000091MA1999999096991MD1310161+9999REMSYN05801265 26/// /3001 11055 21066 39699 40309 53016 333 60005=
0110012650999992018011120004+62267+010733FM-12+048299999V0200801N001019999999N999999999-00601-00681103141ADDAA101000091MA1999999097021MD1310181+9999REMSYN05801265 26/// /0801 11060 21068 39702 40314 53018 333 60005=
0110012650999992018011121004+62267+010733FM-12+048299999V0201101N001019999999N999999999-00671-00751103221ADDAA101000091MA1999999097081MD1110181+9999REMSYN05801265 26/// /1101 11067 21075 39708 40322 51018 333 60005=
0110012650999992018011122004+62267+010733FM-12+048299999V0200601N001019999999N999999999-00821-00901103361ADDAA101000091MA1999999097181MD1310191+9999REMSYN05801265 26/// /0601 11082 21090 39718 40336 53019 333 60005=
0110012650999992018011123004+62267+010733FM-12+048299999V0200801N001019999999N999999999-00811-00881103441ADDAA101000091MA1999999097261MD1310241+9999REMSYN05801265 26/// /0801 11081 21088 39726 40344 53024 333 60005=
0130012650999992018011200004+62267+010733FM-12+048299999V0200801N001019999999N999999999-00931-01011103501ADDAA106000091MA1999999097291MD1110211+9999OD139900301999REMSYN06401265 16/// /0801 11093 21101 39729 40350 51021 60001 333 91103=
0110012650999992018011201004+62267+010733FM-12+048299999V0200801N001019999999N999999999-01021-01131103601ADDAA101000091MA1999999097361MD1310191+9999REMSYN05801265 26/// /0801 11102 21113 39736 40360 53019 333 60005=
0110012650999992018011202004+62267+010733FM-12+048299999V0209999C999999999999N999999999-01041-01121103691ADDAA101000091MA1999999097441MD1310171+9999REMSYN05801265 26/// /0000 11104 21112 39744 40369 53017 333 60005=
0110012650999992018011203004+62267+010733FM-12+048299999V0202901N001019999999N999999999-01031-01151103701ADDAA101000091MA1999999097461MD1110171+9999REMSYN05801265 26/// /2901 11103 21115 39746 40370 51017 333 60005=
0110012650999992018011204004+62267+010733FM-12+048299999V0203301N001019999999N999999999-00981-01051103721ADDAA101000091MA1999999097481MD1110121+9999REMSYN05801265 26/// /3301 11098 21105 39748 40372 51012 333 60005=
0110012650999992018011205004+62267+010733FM-12+048299999V0209999C999999999999N999999999-00861-00941103721ADDAA101000091MA1999999097521MD1210081+9999REMSYN05801265 26/// /0000 11086 21094 39752 40372 52008 333 60005=
0189012650999992018011206004+62267+010733FM-12+048299999V0209999C999999999999N999999999-00831-00911103761ADDAA112000091AA224000091AJ100223100220099KA1240N-01111MA1999999097561MD1210091+9999OD139900201999REMSYN08201265 16/// /0000 11083 21091 39756 40376 52009 60002 333 21111 4/022 70000 91102=
0110012650999992018011207004+62267+010733FM-12+048299999V0203001N001019999999N999999999-00781-00861103771ADDAA101000091MA1999999097571MD1110091+9999REMSYN05801265 26/// /3001 11078 21086 39757 40377 51009 333 60005=
0110012650999992018011208004+62267+010733FM-12+048299999V0209999C999999999999N999999999-00751-00821103801ADDAA101000091MA1999999097611MD1110101+9999REMSYN05801265 26/// /0000 11075 21082 39761 40380 51010 333 60005=
0110012650999992018011209004+62267+010733FM-12+048299999V0202701N001019999999N999999999-00701-00771103811ADDAA101000091MA1999999097631MD1210081+9999REMSYN05801265 26/// /2701 11070 21077 39763 40381 52008 333 60005=
0110012650999992018011210004+62267+010733FM-12+048299999V0202501N002019999999N999999999-00631-00701103871ADDAA101000091MA1999999097701MD1310131+9999REMSYN05801265 26/// /2502 11063 21070 39770 40387 53013 333 60005=
0110012650999992018011211004+62267+010733FM-12+048299999V0202601N002019999999N999999999-00621-00701103881ADDAA101000091MA1999999097721MD1310111+9999REMSYN05801265 26/// /2602 11062 21070 39772 40388 53011 333 60005=
0130012650999992018011212004+62267+010733FM-12+048299999V0202601N002019999999N999999999-00611-00691103901ADDAA106000091MA1999999097731MD1110091+9999OD139900401999REMSYN06401265 16/// /2602 11061 21069 39773 40390 51009 60001 333 91104=
0110012650999992018011213004+62267+010733FM-12+048299999V0202501N002019999999N999999999-00621-00691103881ADDAA101000091MA1999999097721MD1990021+9999REMSYN05801265 26/// /2502 11062 21069 39772 40388 50002 333 60005=
0110012650999992018011214004+62267+010733FM-12+048299999V0202301N001019999999N999999999-00621-00701103901ADDAA101000091MA1999999097731MD1210011+9999REMSYN05801265 26/// /2301 11062 21070 39773 40390 52001 333 60005=
0110012650999992018011215004+62267+010733FM-12+048299999V0202401N001019999999N999999999-00651-00731103911ADDAA101000091MA1999999097741MD1210011+9999REMSYN05801265 26/// /2401 11065 21073 39774 40391 52001 333 60005=
0110012650999992018011216004+62267+010733FM-12+048299999V0202201N001019999999N999999999-00651-00751103921ADDAA101000091MA1999999097751MD1210041+9999REMSYN05801265 26/// /2201 11065 21075 39775 40392 52004 333 60005=
0110012650999992018011217004+62267+010733FM-12+048299999V0202301N001019999999N999999999-00661-00761103961ADDAA101000091MA1999999097781MD1210041+9999REMSYN05801265 26/// /2301 11066 21076 39778 40396 52004 333 60005=
0149012650999992018011218004+62267+010733FM-12+048299999V0201801N002019999999N999999999-00681-00801103941ADDAA112000091KA1120M-00601MA1999999097761MD1210031+9999OD139900401999REMSYN07001265 16/// /1802 11068 21080 39776 40394 52003 60002 333 11060 91104=
0110012650999992018011219004+62267+010733FM-12+048299999V0201901N003019999999N999999999-00711-00831103961ADDAA101000091MA1999999097771MD1210011+9999REMSYN05801265 26/// /1903 11071 21083 39777 40396 52001 333 60005=
0110012650999992018011220004+62267+010733FM-12+048299999V0202201N002019999999N999999999-00721-00831103971ADDAA101000091MA1999999097781MD1510001+9999REMSYN05801265 26/// /2202 11072 21083 39778 40397 55000 333 60005=
0110012650999992018011221004+62267+010733FM-12+048299999V0202001N002019999999N999999999-00731-00851103991ADDAA101000091MA1999999097791MD1210031+9999REMSYN05801265 26/// /2002 11073 21085 39779 40399 52003 333 60005=
0110012650999992018011222004+62267+010733FM-12+048299999V0202001N003019999999N999999999-00761-00881103961ADDAA101000091MA1999999097761MD1990001+9999REMSYN05801265 26/// /2003 11076 21088 39776 40396 50000 333 60005=
0110012650999992018011223004+62267+010733FM-12+048299999V0202001N003019999999N999999999-00791-00921103981ADDAA101000091MA1999999097771MD1990011+9999REMSYN05801265 26/// /2003 11079 21092 39777 40398 50001 333 60005=
0130012650999992018011300004+62267+010733FM-12+048299999V0201801N001019999999N999999999-00781-00901103971ADDAA106000091MA1999999097761MD1710031+9999OD139900601999REMSYN06401265 16/// /1801 11078 21090 39776 40397 57003 60001 333 91106=
0110012650999992018011301004+62267+010733FM-12+048299999V0201601N002019999999N999999999-00811-00961103961ADDAA101000091MA1999999097751MD1710011+9999REMSYN05801265 26/// /1602 11081 21096 39775 40396 57001 333 60005=
0110012650999992018011302004+62267+010733FM-12+048299999V0201601N003019999999N999999999-00881-01021104021ADDAA101000091MA1999999097791MD1310021+9999REMSYN05801265 26/// /1603 11088 21102 39779 40402 53002 333 60005=
0110012650999992018011303004+62267+010733FM-12+048299999V0202001N001019999999N999999999-00891-01031104011ADDAA101000091MA1999999097781MD1210021+9999REMSYN05801265 26/// /2001 11089 21103 39778 40401 52002 333 60005=
0110012650999992018011304004+62267+010733FM-12+048299999V0202101N002019999999N999999999-00911-01071104001ADDAA101000091MA1999999097761MD1990011+9999REMSYN05801265 26/// /2102 11091 21107 39776 40400 50001 333 60005=
0110012650999992018011305004+62267+010733FM-12+048299999V0202301N002019999999N999999999-00941-01101103991ADDAA101000091MA1999999097751MD1710041+9999REMSYN05801265 26/// /2302 11094 21110 39775 40399 57004 333 60005=
0189012650999992018011306004+62267+010733FM-12+048299999V0202101N001019999999N999999999-00971-01131103971ADDAA112000131AA224000131AJ100213100210099KA1240N-00981MA1999999097721MD1710051+9999OD139900601999REMSYN08201265 16/// /2101 11097 21113 39772 40397 57005 69912 333 21098 4/021 70001 91106=
0110012650999992018011307004+62267+010733FM-12+048299999V0202701N001019999999N999999999-00991-01151103991ADDAA101000091MA1999999097741MD1710021+9999REMSYN05801265 26/// /2701 11099 21115 39774 40399 57002 333 60005=
0110012650999992018011308004+62267+010733FM-12+048299999V0202501N002019999999N999999999-01011-01181103981ADDAA101000091MA1999999097721MD1710031+9999REMSYN05801265 26/// /2502 11101 21118 39772 40398 57003 333 60005=
0110012650999992018011309004+62267+010733FM-12+048299999V0202401N002019999999N999999999-01011-01191103971ADDAA101000091MA1999999097711MD1710021+9999REMSYN05801265 26/// /2402 11101 21119 39771 40397 57002 333 60005=
0110012650999992018011310004+62267+010733FM-12+048299999V0202401N003019999999N999999999-01011-01191103951ADDAA101000091MA1999999097691MD1710051+9999REMSYN05801265 26/// /2403 11101 21119 39769 40395 57005 333 60005=
0110012650999992018011311004+62267+010733FM-12+048299999V0202301N004019999999N999999999-00991-01191103871ADDAA101000091MA1999999097631MD1810091+9999REMSYN05801265 26/// /2304 11099 21119 39763 40387 58009 333 60005=
0130012650999992018011312004+62267+010733FM-12+048299999V0202301N004019999999N999999999-00951-01131103811ADDAA106000091MA1999999097571MD1810141+9999OD139900701999REMSYN06401265 16/// /2304 11095 21113 39757 40381 58014 60001 333 91107=
0110012650999992018011313004+62267+010733FM-12+048299999V0202201N003019999999N999999999-00921-01101103741ADDAA101000091MA1999999097521MD1710171+9999REMSYN05801265 26/// /2203 11092 21110 39752 40374 57017 333 60005=
0110012650999992018011314004+62267+010733FM-12+048299999V0202301N003019999999N999999999-00941-01151103711ADDAA101000091MA1999999097491MD1710141+9999REMSYN05801265 26/// /2303 11094 21115 39749 40371 57014 333 60005=
0110012650999992018011315004+62267+010733FM-12+048299999V0202201N003019999999N999999999-00931-01141103681ADDAA101000131MA1999999097461MD1710111+9999REMSYN05801265 26/// /2203 11093 21114 39746 40368 57011 333 69915=
0110012650999992018011316004+62267+010733FM-12+048299999V0202301N003019999999N999999999-00911-01121103671ADDAA101000091MA1999999097451MD1710071+9999REMSYN05801265 26/// /2303 11091 21112 39745 40367 57007 333 60005=
0110012650999992018011317004+62267+010733FM-12+048299999V0202301N003019999999N999999999-01031-01221103691ADDAA101000091MA1999999097441MD1710041+9999REMSYN05801265 26/// /2303 11103 21122 39744 40369 57004 333 60005=
0149012650999992018011318004+62267+010733FM-12+048299999V0202501N003019999999N999999999-01181-01391103721ADDAA112000131KA1120M-00891MA1999999097441MD1710021+9999OD139900901999REMSYN07001265 16/// /2503 11118 21139 39744 40372 57002 69912 333 11089 91109=
0110012650999992018011319004+62267+010733FM-12+048299999V0202501N003019999999N999999999-01271-01491103741ADDAA101000131MA1999999097441MD1710021+9999REMSYN05801265 26/// /2503 11127 21149 39744 40374 57002 333 69915=
0110012650999992018011320004+62267+010733FM-12+048299999V0202501N002019999999N999999999-01461-01611103721ADDAA101000091MA1999999097371MD1810071+9999REMSYN05801265 26/// /2502 11146 21161 39737 40372 58007 333 60005=
0110012650999992018011321004+62267+010733FM-12+048299999V0202501N002019999999N999999999-01651-01811103721ADDAA101000091MA1999999097331MD1810121+9999REMSYN05801265 26/// /2502 11165 21181 39733 40372 58012 333 60005=
0110012650999992018011322004+62267+010733FM-12+048299999V0200801N001019999999N999999999-01911-02081103771ADDAA101000091MA1999999097321MD1610121+9999REMSYN05801265 26/// /0801 11191 21208 39732 40377 56012 333 60005=
0110012650999992018011323004+62267+010733FM-12+048299999V0201201N002019999999N999999999-02041-02241103751ADDAA101000091MA1999999097261MD1810111+9999REMSYN05801265 26/// /1202 11204 21224 39726 40375 58011 333 60005=
0130012650999992018011400004+62267+010733FM-12+048299999V0203601N001019999999N999999999-02081-02281103711ADDAA106000131MA1999999097221MD1810111+9999OD139900701999REMSYN06401265 16/// /3601 11208 21228 39722 40371 58011 69911 333 91107=
0110012650999992018011401004+62267+010733FM-12+048299999V0202901N003019999999N999999999-02161-02371103671ADDAA101000091MA1999999097161MD1810161+9999REMSYN05801265 26/// /2903 11216 21237 39716 40367 58016 333 60005=
0110012650999992018011402004+62267+010733FM-12+048299999V0202701N001019999999N999999999-02051-02241103591ADDAA101000131MA1999999097111MD1710161+9999REMSYN05801265 26/// /2701 11205 21224 39711 40359 57016 333 69915=
0110012650999992018011403004+62267+010733FM-12+048299999V0203001N003019999999N999999999-01981-02171103481ADDAA101000091MA1999999097021MD1810201+9999REMSYN05801265 26/// /3003 11198 21217 39702 40348 58020 333 60005=
0110012650999992018011404004+62267+010733FM-12+048299999V0203201N001019999999N999999999-01971-02161103431ADDAA101000091MA1999999096981MD1710181+9999REMSYN05801265 26/// /3201 11197 21216 39698 40343 57018 333 60005=
0110012650999992018011405004+62267+010733FM-12+048299999V0203101N002019999999N999999999-01821-01981103341ADDAA101000091MA1999999096931MD1710181+9999REMSYN05801265 26/// /3102 11182 21198 39693 40334 57018 333 60005=
0189012650999992018011406004+62267+010733FM-12+048299999V0202801N001019999999N999999999-01811-01991103261ADDAA112000231AA224000331AJ100233100230099KA1240N-02211MA1999999096861MD1810171+9999OD139900501999REMSYN08201265 16/// /2801 11181 21199 39686 40326 58017 69922 333 21221 4/023 70003 91105=
0110012650999992018011407004+62267+010733FM-12+048299999V0202701N001019999999N999999999-01801-01971103211ADDAA101000091MA1999999096811MD1710171+9999REMSYN05801265 26/// /2701 11180 21197 39681 40321 57017 333 60005=
0110012650999992018011408004+62267+010733FM-12+048299999V0202901N001019999999N999999999-01871-02061103131ADDAA101000091MA1999999096721MD1810201+9999REMSYN05801265 26/// /2901 11187 21206 39672 40313 58020 333 60005=
0110012650999992018011409004+62267+010733FM-12+048299999V0202001N003019999999N999999999-00812-00832102791ADDAA101000091MA1999999096631MD1810221+9999REMSYN05801265 26/// /2003 11081 21083 39663 40279 58022 333 60005=
0110012650999992018011410004+62267+010733FM-12+048299999V0201601N003019999999N999999999-00571-00901102671ADDAA101000131MA1999999096591MD1610221+9999REMSYN05801265 26/// /1603 11057 21090 39659 40267 56022 333 69915=
0110012650999992018011411004+62267+010733FM-12+048299999V0201701N005019999999N999999999-00521-00851102531ADDAA101000131MA1999999096471MD1810261+9999REMSYN05801265 26/// /1705 11052 21085 39647 40253 58026 333 69915=
0130012650999992018011412004+62267+010733FM-12+048299999V0201401N005019999999N999999999-00531-00851102421ADDAA106000431MA1999999096361MD1810271+9999OD139901201999REMSYN06401265 16/// /1405 11053 21085 39636 40242 58027 69941 333 91112=
0110012650999992018011413004+62267+010733FM-12+048299999V0201801N005019999999N999999999-00511-00891102361ADDAA101000431MA1999999096311MD1610291+9999REMSYN05801265 26/// /1805 11051 21089 39631 40236 56029 333 69945=
0110012650999992018011414004+62267+010733FM-12+048299999V0201701N007019999999N999999999-00531-00941102281ADDAA101000431MA1999999096231MD1810241+9999REMSYN05801265 26/// /1707 11053 21094 39623 40228 58024 333 69945=
0110012650999992018011415004+62267+010733FM-12+048299999V0201701N006019999999N999999999-00561-00941102191ADDAA101000231MA1999999096141MD1810221+9999REMSYN05801265 26/// /1706 11056 21094 39614 40219 58022 333 69925=
0110012650999992018011416004+62267+010733FM-12+048299999V0201601N006019999999N999999999-00561-00921102041ADDAA101000631MA1999999096001MD1810311+9999REMSYN05801265 26/// /1606 11056 21092 39600 40204 58031 333 69965=
0110012650999992018011417004+62267+010733FM-12+048299999V0201801N007019999999N999999999-00561-00921101981ADDAA101000331MA1999999095941MD1510291+9999REMSYN05801265 26/// /1807 11056 21092 39594 40198 55029 333 69935=
0149012650999992018011418004+62267+010733FM-12+048299999V0201601N006019999999N999999999-00551-00911101881ADDAA112003031KA1120M-00491MA1999999095851MD1610281+9999OD139901701999REMSYN07001265 16/// /1606 11055 21091 39585 40188 56028 60032 333 11049 91117=
0110012650999992018011419004+62267+010733FM-12+048299999V0201501N006019999999N999999999-00531-00911101841ADDAA101000531MA1999999095821MD1610181+9999REMSYN05801265 26/// /1506 11053 21091 39582 40184 56018 333 69955=
0110012650999992018011420004+62267+010733FM-12+048299999V0201601N009019999999N999999999-00611-00901101761ADDAA101000131MA1999999095721MD1810211+9999REMSYN05801265 26/// /1609 11061 21090 39572 40176 58021 333 69915=
0110012650999992018011421004+62267+010733FM-12+048299999V0201501N009019999999N999999999-00571-00891101621ADDAA101000531MA1999999095601MD1810261+9999REMSYN05801265 26/// /1509 11057 21089 39560 40162 58026 333 69955=
0110012650999992018011422004+62267+010733FM-12+048299999V0201601N007019999999N999999999-00531-00881101551ADDAA101000531MA1999999095541MD1610281+9999REMSYN05801265 26/// /1607 11053 21088 39554 40155 56028 333 69955=
0110012650999992018011423004+62267+010733FM-12+048299999V0201601N008019999999N999999999-00531-00821101501ADDAA101000431MA1999999095501MD1610231+9999REMSYN05801265 26/// /1608 11053 21082 39550 40150 56023 333 69945=
0130012650999992018011500004+62267+010733FM-12+048299999V0201601N007019999999N999999999-00471-00801101341ADDAA106003031MA1999999095361MD1810241+9999OD139901801999REMSYN06401265 16/// /1607 11047 21080 39536 40134 58024 60031 333 91118=
0110012650999992018011501004+62267+010733FM-12+048299999V0201601N006019999999N999999999-00491-00751101211ADDAA101000631MA1999999095231MD1810311+9999REMSYN05801265 26/// /1606 11049 21075 39523 40121 58031 333 69965=
0110012650999992018011502004+62267+010733FM-12+048299999V0201601N007019999999N999999999-00491-00751101071ADDAA101000631MA1999999095101MD1810391+9999REMSYN05801265 26/// /1607 11049 21075 39510 40107 58039 333 69965=
0104012650999992018011503004+62270+010732FM-12+048299999V0202021N0041199999999999999999-00451-00731100951ADDAA101000531KA1010M-00461KA2010N-00491MA1999999094991MD1710371+9999OC101151OD190100821999REMSYN004BUFR
0110012650999992018011504004+62267+010733FM-12+048299999V0200401N002019999999N999999999-00441-00731100771ADDAA101000231MA1999999094831MD1810401+9999REMSYN05801265 26/// /0402 11044 21073 39483 40077 58040 333 69925=
0110012650999992018011505004+62267+010733FM-12+048299999V0201401N002019999999N999999999-00481-00701100681ADDAA101000131MA1999999094741MD1810371+9999REMSYN05801265 26/// /1402 11048 21070 39474 40068 58037 333 69915=
0189012650999992018011506004+62267+010733FM-12+048299999V0202801N003019999999N999999999-00451-00721100551ADDAA112005031AA224007531AJ100153100150099KA1240N-00641MA1999999094621MD1610371+9999OD139901301999REMSYN08201265 16/// /2803 11045 21072 39462 40055 56037 60052 333 21064 4/015 70075 91113=
0110012650999992018011507004+62267+010733FM-12+048299999V0201201N002019999999N999999999-00481-00721100531ADDAA101000231MA1999999094591MD1610251+9999REMSYN05801265 26/// /1202 11048 21072 39459 40053 56025 333 69925=
0110012650999992018011508004+62267+010733FM-12+048299999V0200501N003019999999N999999999-00491-00751100411ADDAA101000431MA1999999094481MD1610251+9999REMSYN05801265 26/// /0503 11049 21075 39448 40041 56025 333 69945=
0110012650999992018011509004+62267+010733FM-12+048299999V0203301N002019999999N999999999-00501-00741100351ADDAA101000131MA1999999094421MD1810201+9999REMSYN05801265 26/// /3302 11050 21074 39442 40035 58020 333 69915=
0110012650999992018011510004+62267+010733FM-12+048299999V0201601N004019999999N999999999-00511-00781100241ADDAA101000131MA1999999094321MD1710261+9999REMSYN05801265 26/// /1604 11051 21078 39432 40024 57026 333 69915=
0110012650999992018011511004+62267+010733FM-12+048299999V0201701N006019999999N999999999-00531-00791100141ADDAA101000331MA1999999094231MD1810261+9999REMSYN05801265 26/// /1706 11053 21079 39423 40014 58026 333 69935=
0130012650999992018011512004+62267+010733FM-12+048299999V0201801N004019999999N999999999-00521-00811100051ADDAA106001031MA1999999094131MD1810301+9999OD139901401999REMSYN06401265 16/// /1804 11052 21081 39413 40005 58030 60011 333 91114=
0110012650999992018011513004+62267+010733FM-12+048299999V0201901N004019999999N999999999-00501-00761099921ADDAA101000331MA1999999094021MD1810291+9999REMSYN05801265 26/// /1904 11050 21076 39402 49992 58029 333 69935=
0110012650999992018011514004+62267+010733FM-12+048299999V0202901N003019999999N999999999-00491-00781099851ADDAA101000231MA1999999093951MD1810271+9999REMSYN05801265 26/// /2903 11049 21078 39395 49985 58027 333 69925=
0110012650999992018011515004+62267+010733FM-12+048299999V0203401N005019999999N999999999-00521-00761099731ADDAA101000431MA1999999093831MD1810321+9999REMSYN05801265 26/// /3405 11052 21076 39383 49973 58032 333 69945=
0110012650999992018011516004+62267+010733FM-12+048299999V0201301N002019999999N999999999-00491-00751099691ADDAA101000431MA1999999093801MD1810231+9999REMSYN05801265 26/// /1302 11049 21075 39380 49969 58023 333 69945=
0110012650999992018011517004+62267+010733FM-12+048299999V0201301N003019999999N999999999-00461-00751099561ADDAA101000431MA1999999093681MD1810271+9999REMSYN05801265 26/// /1303 11046 21075 39368 49956 58027 333 69945=
0149012650999992018011518004+62267+010733FM-12+048299999V0201501N004019999999N999999999-00451-00721099511ADDAA112003031KA1120M-00451MA1999999093641MD1810181+9999OD139901301999REMSYN07001265 16/// /1504 11045 21072 39364 49951 58018 60032 333 11045 91113=
0110012650999992018011519004+62267+010733FM-12+048299999V0201101N002019999999N999999999-00461-00701099331ADDAA101000331MA1999999093471MD1810331+9999REMSYN05801265 26/// /1102 11046 21070 39347 49933 58033 333 69935=
0110012650999992018011520004+62267+010733FM-12+048299999V0201401N002019999999N999999999-00501-00731099231ADDAA101000331MA1999999093371MD1810321+9999REMSYN05801265 26/// /1402 11050 21073 39337 49923 58032 333 69935=
0110012650999992018011521004+62267+010733FM-12+048299999V0201601N003019999999N999999999-00471-00741099151ADDAA101000331MA1999999093301MD1610341+9999REMSYN05801265 26/// /1603 11047 21074 39330 49915 56034 333 69935=
0110012650999992018011522004+62267+010733FM-12+048299999V0201101N003019999999N999999999-00481-00721099021ADDAA101000431MA1999999093171MD1810301+9999REMSYN05801265 26/// /1103 11048 21072 39317 49902 58030 333 69945=
0110012650999992018011523004+62267+010733FM-12+048299999V0200501N002019999999N999999999-00471-00701098921ADDAA101000331MA1999999093081MD1810291+9999REMSYN05801265 26/// /0502 11047 21070 39308 49892 58029 333 69935=
0130012650999992018011600004+62267+010733FM-12+048299999V0200801N002019999999N999999999-00441-00671098831ADDAA106002031MA1999999093001MD1610301+9999OD139901101999REMSYN06401265 16/// /0802 11044 21067 39300 49883 56030 60021 333 91111=
0110012650999992018011601004+62267+010733FM-12+048299999V0201601N003019999999N999999999-00421-00691098691ADDAA101000131MA1999999092881MD1810291+9999REMSYN05801265 26/// /1603 11042 21069 39288 49869 58029 333 69915=
0110012650999992018011602004+62267+010733FM-12+048299999V0202801N002019999999N999999999-00381-00671098571ADDAA101000431MA1999999092771MD1810301+9999REMSYN05801265 26/// /2802 11038 21067 39277 49857 58030 333 69945=
0110012650999992018011603004+62267+010733FM-12+048299999V0202701N002019999999N999999999-00371-00631098471ADDAA101000431MA1999999092681MD1810321+9999REMSYN05801265 26/// /2702 11037 21063 39268 49847 58032 333 69945=
0110012650999992018011604004+62267+010733FM-12+048299999V0201501N001019999999N999999999-00361-00581098361ADDAA101000231MA1999999092581MD1810301+9999REMSYN05801265 26/// /1501 11036 21058 39258 49836 58030 333 69925=
0110012650999992018011605004+62267+010733FM-12+048299999V0203601N002019999999N999999999-00391-00551098281ADDAA101000631MA1999999092501MD1810281+9999REMSYN05801265 26/// /3602 11039 21055 39250 49828 58028 333 69965=
0189012650999992018011606004+62267+010733FM-12+048299999V0203601N002019999999N999999999-00381-00561098201ADDAA112004031AA224007431AJ100223100220099KA1240N-00501MA1999999092421MD1710251+9999OD139900901999REMSYN08201265 16/// /3602 11038 21056 39242 49820 57025 60042 333 21050 4/022 70074 91109=
0110012650999992018011607004+62267+010733FM-12+048299999V0203201N002019999999N999999999-00401-00521098161ADDAA101000431MA1999999092381MD1710191+9999REMSYN05801265 26/// /3202 11040 21052 39238 49816 57019 333 69945=
0110012650999992018011608004+62267+010733FM-12+048299999V0203201N002019999999N999999999-00401-00551098101ADDAA101000431MA1999999092331MD1710171+9999REMSYN05801265 26/// /3202 11040 21055 39233 49810 57017 333 69945=
0110012650999992018011609004+62267+010733FM-12+048299999V0203401N002019999999N999999999-00411-00521098041ADDAA101000531MA1999999092271MD1710151+9999REMSYN05801265 26/// /3402 11041 21052 39227 49804 57015 333 69955=
0110012650999992018011610004+62267+010733FM-12+048299999V0203101N001019999999N999999999-00371-00491097981ADDAA101000531MA1999999092221MD1710161+9999REMSYN05801265 26/// /3101 11037 21049 39222 49798 57016 333 69955=
0110012650999992018011611004+62267+010733FM-12+048299999V0203401N001019999999N999999999-00341-00481097911ADDAA101000431MA1999999092161MD1710161+9999REMSYN05801265 26/// /3401 11034 21048 39216 49791 57016 333 69945=
0130012650999992018011612004+62267+010733FM-12+048299999V0203101N002019999999N999999999-00321-00441097821ADDAA106003031MA1999999092081MD1810201+9999OD139900501999REMSYN06401265 16/// /3102 11032 21044 39208 49782 58020 60031 333 91105=
0110012650999992018011613004+62267+010733FM-12+048299999V0203101N001019999999N999999999-00291-00401097761ADDAA101000431MA1999999092031MD1710191+9999REMSYN05801265 26/// /3101 11029 21040 39203 49776 57019 333 69945=
0110012650999992018011614004+62267+010733FM-12+048299999V0200201N001019999999N999999999-00261-00381097741ADDAA101000331MA1999999092011MD1610161+9999REMSYN05801265 26/// /0201 11026 21038 39201 49774 56016 333 69935=
0110012650999992018011615004+62267+010733FM-12+048299999V0200101N001019999999N999999999-00281-00371097721ADDAA101000431MA1999999091991MD1710091+9999REMSYN05801265 26/// /0101 11028 21037 39199 49772 57009 333 69945=
0110012650999992018011616004+62267+010733FM-12+048299999V0203501N001019999999N999999999-00271-00381097701ADDAA101000331MA1999999091971MD1710061+9999REMSYN05801265 26/// /3501 11027 21038 39197 49770 57006 333 69935=
0110012650999992018011617004+62267+010733FM-12+048299999V0200801N001019999999N999999999-00281-00401097711ADDAA101000231MA1999999091981MD1710031+9999REMSYN05801265 26/// /0801 11028 21040 39198 49771 57003 333 69925=
0149012650999992018011618004+62267+010733FM-12+048299999V0202101N001019999999N999999999-00321-00391097761ADDAA112004031KA1120M-00251MA1999999092021MD1310031+9999OD139900401999REMSYN07001265 16/// /2101 11032 21039 39202 49776 53003 60042 333 11025 91104=
0110012650999992018011619004+62267+010733FM-12+048299999V0202201N003019999999N999999999-00201-00391097791ADDAA101000231MA1999999092071MD1310101+9999REMSYN05801265 26/// /2203 11020 21039 39207 49779 53010 333 69925=
0110012650999992018011620004+62267+010733FM-12+048299999V0201701N004019999999N999999999-00201-00381097851ADDAA101000091MA1999999092131MD1310151+9999REMSYN05801265 26/// /1704 11020 21038 39213 49785 53015 333 60005=
0110012650999992018011621004+62267+010733FM-12+048299999V0201601N003019999999N999999999-00201-00351097941ADDAA101000091MA1999999092211MD1310191+9999REMSYN05801265 26/// /1603 11020 21035 39221 49794 53019 333 60005=
0110012650999992018011622004+62267+010733FM-12+048299999V0201701N004019999999N999999999-00211-00431098011ADDAA101000091MA1999999092281MD1310211+9999REMSYN05801265 26/// /1704 11021 21043 39228 49801 53021 333 60005=
0110012650999992018011623004+62267+010733FM-12+048299999V0201401N004019999999N999999999-00191-00431098101ADDAA101000231MA1999999092371MD1310241+9999REMSYN05801265 26/// /1404 11019 21043 39237 49810 53024 333 69925=
0130012650999992018011700004+62267+010733FM-12+048299999V0201401N004019999999N999999999-00211-00461098161ADDAA106000431MA1999999092421MD1310211+9999OD139901101999REMSYN06401265 16/// /1404 11021 21046 39242 49816 53021 69941 333 91111=
0110012650999992018011701004+62267+010733FM-12+048299999V0201801N004019999999N999999999-00161-00431098261ADDAA101000091MA1999999092521MD1310241+9999REMSYN05801265 26/// /1804 11016 21043 39252 49826 53024 333 60005=
0110012650999992018011702004+62267+010733FM-12+048299999V0201901N003019999999N999999999-00161-00431098311ADDAA101000091MA1999999092571MD1310201+9999REMSYN05801265 26/// /1903 11016 21043 39257 49831 53020 333 60005=
0110012650999992018011703004+62267+010733FM-12+048299999V0201301N001019999999N999999999-00161-00471098341ADDAA101000091MA1999999092601MD1110191+9999REMSYN05801265 26/// /1301 11016 21047 39260 49834 51019 333 60005=
0110012650999992018011704004+62267+010733FM-12+048299999V0201401N003019999999N999999999-00181-00431098401ADDAA101000091MA1999999092651MD1210131+9999REMSYN05801265 26/// /1403 11018 21043 39265 49840 52013 333 60005=
0110012650999992018011705004+62267+010733FM-12+048299999V0201301N001019999999N999999999-00221-00431098411ADDAA101000091MA1999999092661MD1210101+9999REMSYN05801265 26/// /1301 11022 21043 39266 49841 52010 333 60005=
0189012650999992018011706004+62267+010733FM-12+048299999V0202701N001019999999N999999999-00311-00411098491ADDAA112000531AA224004931AJ100263100260099KA1240N-00351MA1999999092711MD1310111+9999OD139901001999REMSYN08201265 16/// /2701 11031 21041 39271 49849 53011 69952 333 21035 4/026 70049 91110=
0110012650999992018011707004+62267+010733FM-12+048299999V0209999C999999999999N999999999-00491-00551098581ADDAA101000131MA1999999092761MD1310121+9999REMSYN05801265 26/// /0000 11049 21055 39276 49858 53012 333 69915=
0110012650999992018011708004+62267+010733FM-12+048299999V0200901N001019999999N999999999-00601-00661098671ADDAA101000131MA1999999092821MD1210161+9999REMSYN05801265 26/// /0901 11060 21066 39282 49867 52016 333 69915=
0110012650999992018011709004+62267+010733FM-12+048299999V0201201N001019999999N999999999-00541-00591098691ADDAA101000091MA1999999092851MD1210141+9999REMSYN05801265 26/// /1201 11054 21059 39285 49869 52014 333 60005=
0110012650999992018011710004+62267+010733FM-12+048299999V0209999C999999999999N999999999-00501-00561098741ADDAA101000091MA1999999092901MD1210131+9999REMSYN05801265 26/// /0000 11050 21056 39290 49874 52013 333 60005=
0110012650999992018011711004+62267+010733FM-12+048299999V0200401N001019999999N999999999-00451-00531098751ADDAA101000091MA1999999092931MD1210111+9999REMSYN05801265 26/// /0401 11045 21053 39293 49875 52011 333 60005=
0130012650999992018011712004+62267+010733FM-12+048299999V0200101N001019999999N999999999-00431-00531098791ADDAA106000231MA1999999092971MD1210121+9999OD139900201999REMSYN06401265 16/// /0101 11043 21053 39297 49879 52012 69921 333 91102=
0110012650999992018011713004+62267+010733FM-12+048299999V0201401N002019999999N999999999-00311-00461098821ADDAA101000091MA1999999093021MD1210121+9999REMSYN05801265 26/// /1402 11031 21046 39302 49882 52012 333 60005=
0110012650999992018011714004+62267+010733FM-12+048299999V0203401N001019999999N999999999-00281-00571098861ADDAA101000091MA1999999093061MD1210141+9999REMSYN05801265 26/// /3401 11028 21057 39306 49886 52014 333 60005=
0110012650999992018011715004+62267+010733FM-12+048299999V0203501N001019999999N999999999-00351-00631098931ADDAA101000091MA1999999093121MD1310151+9999REMSYN05801265 26/// /3501 11035 21063 39312 49893 53015 333 60005=
0110012650999992018011716004+62267+010733FM-12+048299999V0200701N001019999999N999999999-00401-00731099001ADDAA101000091MA1999999093171MD1210151+9999REMSYN05801265 26/// /0701 11040 21073 39317 49900 52015 333 60005=
0110012650999992018011717004+62267+010733FM-12+048299999V0200901N002019999999N999999999-00421-00721099061ADDAA101000091MA1999999093221MD1210161+9999REMSYN05801265 26/// /0902 11042 21072 39322 49906 52016 333 60005=
0149012650999992018011718004+62267+010733FM-12+048299999V0200301N001019999999N999999999-00461-00751099111ADDAA112000231KA1120M-00261MA1999999093261MD1210141+9999OD139900501999REMSYN07001265 16/// /0301 11046 21075 39326 49911 52014 69922 333 11026 91105=
0110012650999992018011719004+62267+010733FM-12+048299999V0203301N001019999999N999999999-00501-00741099151ADDAA101000091MA1999999093291MD1210121+9999REMSYN05801265 26/// /3301 11050 21074 39329 49915 52012 333 60005=
0110012650999992018011720004+62267+010733FM-12+048299999V0201001N001019999999N999999999-00491-00781099201ADDAA101000091MA1999999093341MD1310131+9999REMSYN05801265 26/// /1001 11049 21078 39334 49920 53013 333 60005=
0110012650999992018011721004+62267+010733FM-12+048299999V0200701N001019999999N999999999-00551-00841099271ADDAA101000091MA1999999093391MD1310141+9999REMSYN05801265 26/// /0701 11055 21084 39339 49927 53014 333 60005=
0110012650999992018011722004+62267+010733FM-12+048299999V0200901N001019999999N999999999-00571-00871099311ADDAA101000091MA1999999093431MD1210141+9999REMSYN05801265 26/// /0901 11057 21087 39343 49931 52014 333 60005=
0110012650999992018011723004+62267+010733FM-12+048299999V0201001N002019999999N999999999-00571-00871099341ADDAA101000091MA1999999093451MD1210111+9999REMSYN05801265 26/// /1002 11057 21087 39345 49934 52011 333 60005=
0130012650999992018011800004+62267+010733FM-12+048299999V0200801N002019999999N999999999-00661-00901099341ADDAA106000091MA1999999093441MD1990051+9999OD139900401999REMSYN06401265 16/// /0802 11066 21090 39344 49934 50005 60001 333 91104=
0110012650999992018011801004+62267+010733FM-12+048299999V0200701N002019999999N999999999-00741-00971099401ADDAA101000091MA1999999093481MD1310041+9999REMSYN05801265 26/// /0702 11074 21097 39348 49940 53004 333 60005=
0110012650999992018011802004+62267+010733FM-12+048299999V0201101N002019999999N999999999-00711-00941099421ADDAA101000091MA1999999093501MD1310041+9999REMSYN05801265 26/// /1102 11071 21094 39350 49942 53004 333 60005=
0110012650999992018011803004+62267+010733FM-12+048299999V0200501N001019999999N999999999-00711-00921099411ADDAA101000091MA1999999093491MD1110051+9999REMSYN05801265 26/// /0501 11071 21092 39349 49941 51005 333 60005=
0110012650999992018011804004+62267+010733FM-12+048299999V0201001N001019999999N999999999-00641-00911099391ADDAA101000091MA1999999093491MD1990011+9999REMSYN05801265 26/// /1001 11064 21091 39349 49939 50001 333 60005=
0110012650999992018011805004+62267+010733FM-12+048299999V0200201N001019999999N999999999-00721-00961099391ADDAA101000091MA1999999093471MD1710021+9999REMSYN05801265 26/// /0201 11072 21096 39347 49939 57002 333 60005=
0189012650999992018011806004+62267+010733FM-12+048299999V0201301N002019999999N999999999-00741-00981099401ADDAA112000091AA224000231AJ100233100230099KA1240N-00881MA1999999093481MD1510021+9999OD139900701999REMSYN08201265 16/// /1302 11074 21098 39348 49940 55002 60002 333 21088 4/023 70002 91107=
0110012650999992018011807004+62267+010733FM-12+048299999V0201301N001019999999N999999999-00711-01021099431ADDAA101000231MA1999999093511MD1310021+9999REMSYN05801265 26/// /1301 11071 21102 39351 49943 53002 333 69925=
0110012650999992018011808004+62267+010733FM-12+048299999V0200701N002019999999N999999999-00751-01051099451ADDAA101000091MA1999999093521MD1210051+9999REMSYN05801265 26/// /0702 11075 21105 39352 49945 52005 333 60005=
0110012650999992018011809004+62267+010733FM-12+048299999V0200901N003019999999N999999999-00711-01011099451ADDAA101000091MA1999999093531MD1210051+9999REMSYN05801265 26/// /0903 11071 21101 39353 49945 52005 333 60005=
0118012650999992018011810004+62270+010732FM-12+048299999V0200551N0008199999999999999999-00651-00961099461ADDAA101999999KA1010M-00651KA2010N-00711MA1999999093551MD1210041+9999OC100681OD140100681192OD299900391999REMSYN004BUFR
0110012650999992018011811004+62267+010733FM-12+048299999V0201101N002019999999N999999999-00721-01021099471ADDAA101000091MA1999999093551MD1210031+9999REMSYN05801265 26/// /1102 11072 21102 39355 49947 52003 333 60005=
0130012650999992018011812004+62267+010733FM-12+048299999V0201201N003019999999N999999999-00741-01051099451ADDAA106000231MA1999999093521MD1990011+9999OD139900801999REMSYN06401265 16/// /1203 11074 21105 39352 49945 50001 69921 333 91108=
0110012650999992018011813004+62267+010733FM-12+048299999V0201401N002019999999N999999999-00761-01071099471ADDAA101000091MA1999999093541MD1710011+9999REMSYN05801265 26/// /1402 11076 21107 39354 49947 57001 333 60005=
0110012650999992018011814004+62267+010733FM-12+048299999V0201701N001019999999N999999999-00841-01111099541ADDAA101000091MA1999999093591MD1310031+9999REMSYN05801265 26/// /1701 11084 21111 39359 49954 53003 333 60005=
0110012650999992018011815004+62267+010733FM-12+048299999V0201501N002019999999N999999999-00781-01021099541ADDAA101000131MA1999999093601MD1210081+9999REMSYN05801265 26/// /1502 11078 21102 39360 49954 52008 333 69915=
0110012650999992018011816004+62267+010733FM-12+048299999V0201401N002019999999N999999999-00781-01021099561ADDAA101000091MA1999999093621MD1210081+9999REMSYN05801265 26/// /1402 11078 21102 39362 49956 52008 333 60005=
0110012650999992018011817004+62267+010733FM-12+048299999V0201601N003019999999N999999999-00761-01001099581ADDAA101000091MA1999999093641MD1210051+9999REMSYN05801265 26/// /1603 11076 21100 39364 49958 52005 333 60005=
0149012650999992018011818004+62267+010733FM-12+048299999V0201401N004019999999N999999999-00751-00981099611ADDAA112000331KA1120M-00651MA1999999093671MD1210071+9999OD139900901999REMSYN07001265 16/// /1404 11075 21098 39367 49961 52007 69932 333 11065 91109=
0110012650999992018011819004+62267+010733FM-12+048299999V0201601N004019999999N999999999-00731-00931099631ADDAA101000091MA1999999093691MD1210071+9999REMSYN05801265 26/// /1604 11073 21093 39369 49963 52007 333 60005=
0110012650999992018011820004+62267+010733FM-12+048299999V0201701N003019999999N999999999-00751-00941099651ADDAA101000091MA1999999093711MD1210071+9999REMSYN05801265 26/// /1703 11075 21094 39371 49965 52007 333 60005=
0110012650999992018011821004+62267+010733FM-12+048299999V0202601N002019999999N999999999-01652-01852099891ADDAA101000091MA1999999093741MD1210071+9999REMSYN05801265 26/// /2602 11165 21185 39374 49989 52007 333 60005=
0110012650999992018011822004+62267+010733FM-12+048299999V0202501N002019999999N999999999-01381-01461099821ADDAA101000091MA1999999093751MD1210071+9999REMSYN05801265 26/// /2502 11138 21146 39375 49982 52007 333 60005=
0110012650999992018011823004+62267+010733FM-12+048299999V0202701N002019999999N999999999-01691-01831099931ADDAA101000091MA1999999093761MD1210051+9999REMSYN05801265 26/// /2702 11169 21183 39376 49993 52005 333 60005=
0130012650999992018011900004+62267+010733FM-12+048299999V0202701N003019999999N999999999-01501-01611099901ADDAA106000091MA1999999093771MD1210031+9999OD139900701999REMSYN06401265 16/// /2703 11150 21161 39377 49990 52003 60001 333 91107=
0110012650999992018011901004+62267+010733FM-12+048299999V0201301N001019999999N999999999-01691-01851100001ADDAA101000091MA1999999093831MD1310081+9999REMSYN05801265 26/// /1301 11169 21185 39383 40000 53008 333 60005=
0110012650999992018011902004+62267+010733FM-12+048299999V0200601N001019999999N999999999-01851-02031100101ADDAA101000091MA1999999093881MD1310121+9999REMSYN05801265 26/// /0601 11185 21203 39388 40010 53012 333 60005=
0110012650999992018011903004+62267+010733FM-12+048299999V0200701N001019999999N999999999-01791-01961100101ADDAA101000091MA1999999093901MD1210131+9999REMSYN05801265 26/// /0701 11179 21196 39390 40010 52013 333 60005=
0110012650999992018011904004+62267+010733FM-12+048299999V0202901N001019999999N999999999-01881-02071100151ADDAA101000091MA1999999093921MD1110091+9999REMSYN05801265 26/// /2901 11188 21207 39392 40015 51009 333 60005=
0110012650999992018011905004+62267+010733FM-12+048299999V0202701N001019999999N999999999-01991-02171100211ADDAA101000091MA1999999093951MD1210071+9999REMSYN05801265 26/// /2701 11199 21217 39395 40021 52007 333 60005=
0189012650999992018011906004+62267+010733FM-12+048299999V0202801N001019999999N999999999-01881-02061100221ADDAA112000091AA224000331AJ100243100240099KA1240N-02041MA1999999093991MD1210091+9999OD139900401999REMSYN08201265 16/// /2801 11188 21206 39399 40022 52009 60002 333 21204 4/024 70003 91104=
0110012650999992018011907004+62267+010733FM-12+048299999V0202601N001019999999N999999999-01881-02071100261ADDAA101000091MA1999999094031MD1210111+9999REMSYN05801265 26/// /2601 11188 21207 39403 40026 52011 333 60005=
0110012650999992018011908004+62267+010733FM-12+048299999V0202701N001019999999N999999999-01991-02181100321ADDAA101000091MA1999999094061MD1210111+9999REMSYN05801265 26/// /2701 11199 21218 39406 40032 52011 333 60005=
0110012650999992018011909004+62267+010733FM-12+048299999V0203001N001019999999N999999999-02161-02391100411ADDAA101000091MA1999999094101MD1210121+9999REMSYN05801265 26/// /3001 11216 21239 39410 40041 52012 333 60005=
0110012650999992018011910004+62267+010733FM-12+048299999V0203201N001019999999N999999999-02071-02271100431ADDAA101000091MA1999999094141MD1210121+9999REMSYN05801265 26/// /3201 11207 21227 39414 40043 52012 333 60005=
0110012650999992018011911004+62267+010733FM-12+048299999V0203001N001019999999N999999999-02041-02241100451ADDAA101000091MA1999999094171MD1210111+9999REMSYN05801265 26/// /3001 11204 21224 39417 40045 52011 333 60005=
0130012650999992018011912004+62267+010733FM-12+048299999V0201901N001019999999N999999999-01981-02191100451ADDAA106000131MA1999999094181MD1110071+9999OD139900401999REMSYN06401265 16/// /1901 11198 21219 39418 40045 51007 69911 333 91104=
0110012650999992018011913004+62267+010733FM-12+048299999V0209999C999999999999N999999999-02011-02211100461ADDAA101000091MA1999999094181MD1210041+9999REMSYN05801265 26/// /0000 11201 21221 39418 40046 52004 333 60005=
0110012650999992018011914004+62267+010733FM-12+048299999V0202401N001019999999N999999999-01961-02171100481ADDAA101000091MA1999999094211MD1210041+9999REMSYN05801265 26/// /2401 11196 21217 39421 40048 52004 333 60005=
0110012650999992018011915004+62267+010733FM-12+048299999V0200101N001019999999N999999999-01911-02091100471ADDAA101000091MA1999999094221MD1210051+9999REMSYN05801265 26/// /0101 11191 21209 39422 40047 52005 333 60005=
0110012650999992018011916004+62270+010732FM-12+048299999V0203531N0002199999999999999999-01841-02031100501ADDAA101999999KA1010M-01851KA2010N-01911MA1999999094261MD1210081+9999OD140100141262OD299900081999REMSYN004BUFR
0110012650999992018011917004+62267+010733FM-12+048299999V0203401N001019999999N999999999-01901-02091100511ADDAA101000091MA1999999094261MD1210051+9999REMSYN05801265 26/// /3401 11190 21209 39426 40051 52005 333 60005=
